:1000000000020020810400005D0400000D040000D7
:1000100000000000000000000000000000000000E0
:10002000000000000000000000000000E1030000EC
:100030000000000000000000B90300006D04000093
:10004000B1000000B1000000B1000000B1000000EC
:10005000A9130000B1000000B1000000B1000000D1
:10006000B100000019120000B1000000B100000052
:10007000B1000000B100000023120000B100000038
:10008000B1000000B100000091150000AD150000A6
:10009000B1000000B1000000B1000000B10000009C
:1000A000B1000000B1000000B1000000B10000008C
:1000B00010B500F0DBF910BD10B500F0DDFA10BD91
:1000C0007047000070B50C00060000F099FA094B6B
:1000D000094A1D682C19944202D8084A944207D252
:1000E0000C23012533606D4200F092FA280070BDA8
:1000F0001C60F9E70002002000800020B84F0020BB
:1001000010B51900100000F0C5FA10BD10B51900A7
:10011000100000F0C9FA10BD132303600120404213
:10012000704713230360012040427047132303608C
:100130000120404270470023022203608A425B4153
:10014000180070470020124B10B51860114B12496F
:100150001B680A685C421C40104B6343104CDB0E6A
:10016000E35C104C9B001B591B68083B93420ED06C
:10017000824204D010790A2801D1013010710A227C
:100180001A710622985E084A0B601080012010BD8B
:100190004C040020400400204804002031B57C07B6
:1001A0000C1B0100540400204404002030B50379E6
:1001B000092919D9092B13D804004379184A9B003F
:1001C0009D580834002D0DD02D6885609D582C60F9
:1001D000D45001234479134AA34014682343136085
:1001E000017130BD8460F3E7092BF9D942790C4CD9
:1001F00092001359002B04D01D68AB420DD100238F
:1002000013514579AB00E358002BE9D10133AB40E2
:10021000044A14689C432300E1E72A681A60F0E767
:10022000540400204004002010B5094B1B681A79C3
:10023000092A02D95B79834206D900F0ECF900283B
:1002400003D00122034B1A6010BD00F0ABF8FBE7AE
:10025000480400204C04002070B5002400F0D0F9C0
:10026000084B094A1B88094D1BB29B009C50084A49
:10027000210013682868013B1360FFF797FF2C608B
:1002800000F08CF84404002094040020480400206E
:100290005004002003000F48FF2298428041404252
:1002A0000001C3409A4292415242D200D3400F21F2
:1002B00099428941024348428000C3400321994248
:1002C000894149424900CB4002430A435808104340
:1002D0007047C046FFFF0000D318032293431F4A14
:1002E00010B51C1F2260620703D0083B1C001C4B8A
:1002F00023608022231F52041A601A4A043B1860AC
:10030000043B1A600022043B1A60043B03321A606B
:10031000043B013A1A60043B013A1A60043B19603D
:100320000632043B1A60043B013A1A60043B013A6E
:100330001A60043B013A1A60043B07321A60043B1E
:10034000013A1A60043B013A1A60043B013A1A6010
:100350002000032344385B42036010BD7777777732
:1003600088888888590200000548064A064B0168BB
:10037000914201D1984201D3181A70470430F6E730
:1003800000000020FEE7FEE700020020EFF30880F7
:1003900070470000004870470000002000F034F96A
:1003A00001DFFEE78023034A5B0551680B4353607E
:1003B0007047C04600ED00E0EFF30980EC4685464B
:1003C0004046494652465B46FFB4704601B4684613
:1003D000E54602490968086000F002F84804002078
:1003E000FFF7B0FEEE46084800680068854601BC8D
:1003F0008446FFBC8046894692469B46684680F309
:100400000988F5466047000048040020104B114A57
:100410005933FF3310496846904203D8984201D9B6
:10042000002102E009468D46012104207246024265
:1004300002D1EFF3088001E0EFF30980F0B4434606
:100440004C4655465E4678B46B4600F04DF8C046C3
:1004500000000020008000200002002010B50249AA
:10046000042000F059FBC046C51C010010B502492C
:10047000062000F051FBC0462C1B0100704770475E
:1004800070B5FFF7FBFF6A46104B11499A4214D82A
:10049000002310481049114C1A188A420FD300212A
:1004A0000F4B104A93420ED3FFF7E9FF00F018FB01
:1004B0000EF0FEFB00F06AFB70BD02C3E6E7E558F4
:1004C00004331560E8E702C3ECE7C04600000020F3
:1004D000FEE7FEE70002002040040020382A010069
:1004E00040040020B84F0020F0B58DB00A92364A83
:1004F0000B931268354B040003919A4202D03448A2
:100500000FF0F2F8039B002B37D0002531480FF095
:10051000EBF82E0030480FF0E7F80A992F480FF05B
:1005200069F8039B002B23D12D480FF0DDF8310033
:100530002C480FF05FF86946234BC91A2A4BC9189B
:1005400003D5494229480FF055F80B9B1E00201C8B
:100550008268C36801698C4641698E46AD46311C8C
:10056000F0C9A046A946B246BB46F0C9416800683A
:1005700001BE1F49052000F0CFFA25002368E76976
:1005800004936368A6690593A36824350693E3681A
:1005900007932369089363690993BB0500D4043D5D
:1005A00014480FF0A1F8079B059A00930499069B45
:1005B00011480FF01FF800973300099A08990F4867
:1005C0000FF018F8A6E7C04600000020FEE7FEE79F
:1005D0003A1B0100501B0100151C01001A1C0100F0
:1005E0002C1C01005D1C0100A8FEFFFF851C010002
:1005F000B21C01007F1B01009A1B0100D71B0100E8
:10060000EFF3108072B6704762B6EFF31080704758
:1006100080F310887047EFF30580C0B27047000088
:1006200073B50F4D01AA296803240B0CDBB20191AD
:10063000002B06D15378013C002B02D11478631EA5
:100640009C41FFF7DDFF2B68019A06009A4202D118
:10065000200000F013FC3000FFF7DAFF73BDC04646
:10066000040200200022034B10B51A60FFF7D8FFE8
:10067000FEE7C04604020020E12110B5034B044A06
:100680004902002000F0EEFC10BDC0460802002028
:10069000410E000010B50A000100024800F0DBFB2B
:1006A00010BDC0460802002010B50C000A00010071
:1006B000002000F09DFD200010BD10B5012000F0CD
:1006C00053FF10BD044B10B519680200002902D178
:1006D000012000F027FF10BD5805002010B5094A81
:1006E0001368002B08D09C6881688C4207D303D123
:1006F00059684468A14202D90360106010BD1A0015
:100700001B68EEE7600500200020F0B5214F224E67
:100710003B68224901333B60214B05001A68186091
:1007200033680A601900002904D03C68A4468C682C
:1007300064451AD9002800D03160002D14D0002162
:1007400029608A4222D01100002B05D050685C68D5
:100750001900A04200D81100080012681B68002A86
:1007600007D103600D4B1960F0BD0D000120096831
:10077000D9E7002B01D10260F4E754685E681D00E0
:10078000B44200D8150005602800E6E7034A13606C
:10079000EAE7C0465C0500206005002068050020EF
:1007A00064050020F8B501232F4F304D3B602B68C6
:1007B000002B07D1FFF7A8FFFFF77FFF431CFBD0FB
:1007C000002402E0FFF779FF04002B68002B0BD117
:1007D000FFF773FF1430844222D9FFF795FFFFF72C
:1007E0006CFF8442FBD3EBE75E68FFF766FF844251
:1007F00004D8864202D9361A132EE9D82B685E68CF
:10080000FFF75BFF844201D88642F7D82B681A684D
:1008100018692A6000225A609A60DA689047D4E723
:100820002B68002B0CD05E68FFF747FF143E143096
:100830008642CAD3002330003B60FFF743FFF8BD78
:10084000FFF73BFF0600844202D9FFF75DFFB7E7E1
:100850000300153304D9FFF730FF8642FBD9F4E7D4
:1008600001267642E6E7C0465805002068050020CC
:10087000184A10B513681100834212D11B68136027
:10088000002B04D058681438FFF71CFF10BD01205E
:100890004042F9E71A68984201D10A60F6E7190068
:1008A0001300002BF6D10C4A1368002B09D10B4A18
:1008B0001368002BEAD01968984205D01A000B0083
:1008C000F7E71968984201D11160DFE71A000B00C1
:1008D000EBE7C046680500206405002060050020A5
:1008E00010B50023044A0549012000F0C5FD012090
:1008F0004042FFF7E7FE10BDA507000040420F0091
:1009000070B5FFF7DAFE084B05001C68FFF7D5FE4F
:100910008542F6D8002223001500040012196B410D
:100920001000190070BDC0465C050020F8B5040039
:100930000D00FFF7C2FE0023070023602B1A1E2BB9
:100940000CD8FFF7BAFE8542FBD3FFF7B6FE85420F
:10095000FBD8E368206998470020F8BDFFF750FEF8
:1009600063680600002B02D1A368002B02D0200090
:10097000FFF77EFF28001B4A143865601368B842F1
:100980000BD3A3601368A2689A4208D92000FFF72E
:10099000A5FE3000FFF73CFEDEE70133F1E7B84289
:1009A0000FD9114A11001368002B02D05F68BD42B5
:1009B00014D223600C6013689C42EAD1FFF782FED8
:1009C000E7E70A4A1368002B02D059688D4202D229
:1009D00023601460DDE71A001B68F4E719001B6848
:1009E000E2E7C0465C0500206805002064050020A1
:1009F00070B50400FFF704FE63680500002B02D108
:100A0000A368002B02D02000FFF732FF2800FFF779
:100A1000FFFD70BDC36870B504000D00002B0ED043
:100A2000FFF7E6FF1D2D0BD8FFF747FE0600FFF787
:100A300044FE801B8542FAD8E3682069984770BD60
:100A4000FFF73BFE29182000FFF770FFF7E70000D3
:100A5000F7B504000D00161E02D1FFF7DBFFF7BD4E
:100A6000FFF7CEFD63680090002B02D1A368002B36
:100A700002D02000FFF7FCFEFFF71FFE0B4B070024
:100A80001B680193FFF719FE8742F5D8019B2818D0
:100A90006060F318A84207D32000A360FFF71EFE92
:100AA0000098FFF7B5FDDAE70133F5E75C050020B4
:100AB00010B5012806D1084800F0F3FB074800F004
:100AC000F8FB10BD0028FCD1034800F0F2FB0348FE
:100AD00000F0E7FBF5E7C046094400410C44004143
:100AE00010B50021084800F0BCFB0021074800F0C9
:100AF000B8FB0021064800F0B4FB0020FFF7D8FF48
:100B000000F020F910BDC0461344004109440041E3
:100B10000C440041704700000F4B10B51A680C00E0
:100B2000002A13D101321A60032803D171460B4801
:100B30000EF060FD21000A480EF05CFD00F0C4F9E3
:100B400008480EF057FD08480EF054FDFFF758FD19
:100B5000FFF7E0FFFFF786FD6C050020E31C0100B6
:100B6000E71C0100D5200100031D010010B500F0B5
:100B700079FE03480EF03EFD00F048FE002010BD57
:100B8000111D010010B5FFF74BFDFCE71FB5FFF786
:100B900037FD002480210D4B0F221B684900029372
:100BA0000B4B019400930B480C2300F057F8C02125
:100BB000094B07221B68C9000293084B019400935C
:100BC00007480C2300F04AF8FFF7E8FB1C0200205E
:100BD000850B000070050020200200206D0B000036
:100BE0007006002010B5FFF70BFD094B1B681A7942
:100BF000092A07D95B79074A9B009958002901D037
:100C000009689950FFF704FDFFF7CCFB10BDC04603
:100C1000480400205404002070B50B79092B03D937
:100C200009490320FFF778FF0A004C79083203686E
:100C3000002B02D18B60026070BD1D00083D6D79F4
:100C4000AC42F7D31800F2E7D11C010003001A6888
:100C50009A4201D0181A70470433F8E7F0B587B00C
:100C600005000291039204930F2A30D803220B004F
:100C7000024003D004239B1AC518CB1A0322303B31
:100C800093430593EC18049B1B0717D42D6003E0D6
:100C90001B600433A342FBD3FFF7B2FC0123274AB6
:100CA0000190990056581FB2002E13D00133212B0A
:100CB000F7D10198FFF7ACFC8B2709E02B00E9E79F
:100CC0002000FFF773FA0198FFF7A2FC32E0162725
:100CD0007F422FE08C50059B2A000D99E7800C98ED
:100CE000FFF7FAFA029B0121E3620E9B144AA3620A
:100CF000039B2060637101235B42E36113686562BB
:100D000001331360049B2671A660E660266166616C
:100D1000A66126620B42D3D10B212000FFF746FAD1
:100D2000049B5B07CFD40198FFF772FC6B46988950
:100D3000FFF77AFA380007B0F0BDC04694040020EF
:100D40005004002010B50224314A1378A3431370D5
:100D500000F00CFE0E2204212E4B2F489A61DA6916
:100D60000A43DA61426822434260DA698A43DA61FF
:100D70002A4B2B491A6A0A401A628022196A0A43CE
:100D800040211A621A6A8A431A621A6A14431C6260
:100D90001A000823D1681942FCD00121214B197097
:100DA000597849B20029FBDB1F4999601F495960F6
:100DB0001F495980597849B20029FBDB2F219164E2
:100DC0000F39D1641B4A1E39117003221A48017869
:100DD0001142FCD0802252009A60842252025A6052
:100DE0005A7852B2002AFBDB02229A60134AE020B2
:100DF0005A600322C0000100114389B2598059781A
:100E0000C909FCD10132232AF5D100F00DFC10BD37
:100E10000010004000040040004000410008004075
:100E2000FFFCFFFF000C004001080000010601006C
:100E30000141000044080040500800400203210026
:100E400070B5040000F0DDFB05002000103000F05C
:100E500067FD280070BD70B504000D00160032005B
:100E60002900200000F0B9FB002800D070BD200050
:100E70000121103000F024FDF1E7000010B5104B07
:100E8000032806D80CF0D0F90F02090C02210D4AF4
:100E9000517004211A698A4308E00A4A0121F7E7E0
:100EA000084A0021F4E7042219690A431A61FFF78E
:100EB000A7FBBFF34F8F30BFFFF7AAFB10BDC046A3
:100EC00000ED00E000040040F0B58DB002222D4995
:100ED0000BA80DF020FF2C4A2C492D480EF08AFB60
:100EE000FFF742FA0400FFF755FA0500FFF74EFA44
:100EF00080212B0000902200890026480EF07AFB0A
:100F0000E54380230027ED179B0025400793224BE4
:100F1000FB185C68002C26D02379E66A9A000893B7
:100F20001E4B606AD3580993079B9B190793FFF7E1
:100F30008DFE0623E15E2368361A0593636A0396E5
:100F40000493E36A089A029363791548019309238D
:100F500093429B410BAA5B42D3180093A26A099B60
:100F6000AD190EF047FB0437802FD0D10D49079BF8
:100F70000295019300910B000B4A0C480EF03AFBCE
:100F80000DB0F0BD571D0100591D01005F1D01008E
:100F9000641D0100AC1D010094040020581E0100D6
:100FA000F61D0100321E0100341E0100381E010032
:100FB0001423434310B50D4A9B581A7E52070ED591
:100FC000198D0B4BC0001A18C9B2C3585068984706
:100FD000084B1B68002B01D0FFF7E4F910BD1A7E07
:100FE000D209F5D080221A76F2E7C046EC1E010045
:100FF000700C00204C0400200D4A0023904214D0B5
:101000000C4A0133904210D00B4A013390420CD06D
:101010000A4A0133904208D0094A0133904204D071
:10102000084A0133904200D0063B18007047C04682
:1010300000080042000C0042001000420014004270
:1010400000180042001C004210B5FFF7D5FF042332
:10105000C0B28340024A116A0B43136210BDC046FE
:1010600000040040F0B587B0050004910392059399
:10107000012800D9ACE014234343574A02219C586D
:10108000D3185A681F7B13002068019288432060A0
:10109000013306D0100000F0E4F83900019800F0A8
:1010A000C5F814226A434C4B00219B189E683000FF
:1010B00000F0D7F8300000F0F4F83900300000F00C
:1010C000B5F82000FFF7C0FF01232360E369DB07C9
:1010D000FCD42000FFF790FFC3B2029314238022B8
:1010E0006B433D49D201CB181B691A43029B143351
:1010F0001A433A4B92B25A805A7852B2002AFBDB1A
:101100001423C022C0206B43CB18997B92020904A0
:1011100011405A7B8003120502401143304ADE7BA6
:101120000A432260F30703D5802322681343236018
:1011300004992C480CF096F80A2107000CF018F9D5
:1011400007230B40A1895B03C904C90C1943A18182
:1011500038000A210CF086F8A389C004C20C580B91
:10116000802340035B021043A0816360039B002B3C
:1011700024D0019B013321D01B4B039AED00029830
:10118000EA505D19059B09306B60C2B2030605D4B5
:101190001F231A401E3B9340144A13608023626849
:1011A0009B02134363600423A27D1343A375B3071B
:1011B00004D5802362689B0013436360E0694007A5
:1011C000C00FFBD1022322681343236007B0F0BD98
:1011D00001204042FAE7C046EC1E0100000C00402E
:1011E0000420004080C3C901700C002000E100E031
:1011F00014235843074B8A18C358914203D11A7ECF
:101200009207FCD57047187EC007FCD508780131DD
:101210001885F2E7EC1E010010B50020FFF7C8FEAC
:1012200010BD10B50120FFF7C3FE10BD1F22030043
:1012300070B50125934302409C18403426782A411A
:101240002E4326700F2428408000844081409B1844
:1012500030331A78A2431A701A781143C9B2197040
:1012600070BD1F23020018409A431E3B10B58340F7
:10127000072913D88C070AD55360062410180C4090
:1012800040300470072904D10020936110BD9360A1
:10129000F3E700200629F9D15361F7E70120404226
:1012A000F4E71F23020018409A431E3B83409361DA
:1012B00070471F23020018409A431E3B834053612E
:1012C0007047000070B51500C2050600920F012A94
:1012D00043DC1F20224C52013040A218145620003B
:1012E000621C39D01F4AE0008350049B12185360DF
:1012F0003000FFF7B6FF00213000FFF797FF4023D3
:10130000194A91690B439361184B194A5A805A78CC
:10131000D209FCD1174AE3109B009B1807220F202B
:101320002240920090409540102299698143996132
:1013300099690D439D61104B1A600F3AA2400D4B05
:101340001A61DA6059690A435A6102221A705A789E
:1013500052B2002AFBDB002070BD01204042FBE7B7
:10136000141F0100800C002000040040000C00400D
:10137000054200000018004000E100E0C3059B0F9B
:10138000012B0BDC1F221040054A5B01D3181A56B3
:10139000531C03D001239340024AD3607047C046D8
:1013A000141F01000018004070B5002401252A0018
:1013B000A2400A4B19690A4206D01A61084AE300A2
:1013C0009B181A68586890470134102CEFD1054BD0
:1013D0001B68002B01D0FEF7E5FF70BD0018004030
:1013E000800C00204C0400201423584330B50A4DD3
:1013F0002B185C8A4359200703D506318900CA504F
:1014000030BD600703D5D2B259180A76F8E70C311F
:1014100092B24900CA52F3E7541F01001423434318
:10142000134A70B59D581023AE7B0400F6B2AE731C
:101430001E420CD06A7BD20609D52B730D4BC1001E
:10144000CA58002A03D05B1858680021904720230F
:101450001E420CD06A7B920609D52B73054BE40023
:10146000E258002A03D01C1901216068904770BD22
:10147000541F0100000D0020F0B5012845D81424A8
:1014800002274443224D61592C190E88BE430E8019
:10149000A789E689A46837438026F6013E431D4F9D
:1014A0007E801D4F3E6A34433C6201240E883443E3
:1014B0000C800C88E407FCD4142444432C19668A5D
:1014C000248A26438024A40134430C80CC7B64B25C
:1014D000002CFBDB3B240C73104CC6003251A419CA
:1014E000636002230A8813430B80142358430423A8
:1014F0002D180020EB56834206DB1F2213401E3AB4
:101500009A401300064A1360F0BD01204042FBE7F9
:10151000541F0100000C004000040040000D00209A
:1015200000E100E070B50C1E04D001290FD00124A9
:1015300064420AE0142343430A4910265D582100FF
:101540000124AE73FFF750FF6E73200070BD1423AB
:101550002026434303495D582100AE73FFF744FF43
:101560006E73F2E7541F010014235843064BC3580F
:1015700000201A88920706D5044A5A80DA7B52B2B4
:10158000002AFBDB18697047541F01001080FFFF21
:1015900010B50020FFF742FF034B1B68002B01D062
:1015A000FEF700FF10BDC0464C04002010B501201E
:1015B000FFF734FF034B1B68002B01D0FEF7F2FE50
:1015C00010BDC0464C040020836801685A1C82602C
:1015D0004268013A1340C85C7047F8B5070015002F
:1015E0000C001600002E03D0BA68FB689A4201D1A5
:1015F000A81BF8BD3800FFF7E7FF013E207001345B
:10160000F0E7C36830B5426884681B1B934208D07A
:10161000C36804685D1CC5600020013A1340E154B2
:1016200030BD01204042FBE710B5002009F024FA4C
:10163000002009F0E5FA012009F0E2FA10BD0000EF
:101640000122014B1A707047100D002007B50E4B98
:101650000E490F48CB8200231A0008F0BFFB002878
:1016600002DA0C480DF0C6FF02210B48FFF7F9FD26
:101670000023022200930721084B0748FFF722FEB0
:101680000548FFF77BFE07BDB822000024020020BA
:10169000140D0020AE1F01009744004141160000C8
:1016A000F8B5026943690D009C1AC3698069181A6C
:1016B00000190DF067FA0022084B0CF0A9FC060097
:1016C0000F002000AE61EF610DF05CFA32003B00CC
:1016D0000CF010FF286269622800F8BD0000E03FAE
:1016E00070B588B004001222002103A80DF01CFB85
:1016F00004230293236802AD1022164903A8EB824B
:101700000DF009FB022301206B71FFF72DFF124E34
:10171000A06021002B002822300008F047FC011EA9
:1017200004DA0E480DF066FF002410E0A2680C4BAE
:1017300021001A60300000950A4B282208F0C4FBF3
:101740000028F1DB0120FFF70FFF074B1860200096
:1017500008B070BD65210100140D00207C1F010040
:10176000B00D0020C0C62D00B40D0020472310B5D9
:101770000371FFF7B5FF10BD432370B50371066811
:10178000FFF7AEFF002801D1002070BD0F4B1D6890
:10179000442306600371C560FFF7A2FF0028F3D061
:1017A0004523037100230660C360FFF799FF0028FB
:1017B000EAD0074B1C68462306600371C460FFF73C
:1017C0008FFF0028E1D005614461DEE7B00D002005
:1017D000B40D0020F8B50C000768FFF7CDFF002816
:1017E00001D10020F8BD076006694569FFF7BEFF1B
:1017F0000028F6D00269436981690661016242618D
:101800008361C5612100FFF74BFFEBE710B50021B5
:101810009AB00E4809F0BCFCFFF718FF0C4B0AA960
:1018200068460093FFF7D6FF0400026A436A09483E
:101830000DF0E0FEA269E36907480DF0DBFE00222F
:10184000064B07481A700DF0D5FEFEE740420F0028
:10185000E9030000C71F0100D41F0100100D002084
:10186000E11F010010B509F075F8FFF739F804F031
:101870000FFF05F0CBF806F0EBFC00F0C5FB08F01D
:1018800081FD00F005FD00F003F805F0DFF810BD64
:1018900013B5074C0749200009F0C0FC80210094D3
:1018A000054B0222C900054804F064FD13BDC04683
:1018B000B8110020F41F01000C200100B80D002019
:1018C00070B504000D00FEF79BFE23680600002B98
:1018D00006D1013B2360FEF79BFE0125280070BD69
:1018E000002D18D00D4B02211D682800FEF75EFC6C
:1018F000236801330AD12B00083323600023AB6037
:101900003000FEF785FEFEF74DFDE6E729002000DA
:10191000FFF782F9F4E7FEF77BFEDFE748040020DB
:1019200070B50500FEF76CFE2C680600002C03D194
:101930003000FEF76DFE70BD631C02D100232B60EA
:10194000F6E72368083C2B600B212000FEF72EFCF5
:101950002B68002B01D1013B2B6064793000FEF72E
:1019600057FE2000FEF760FCE5E70000194B1A4A1D
:10197000F0B59A601A6A1949C02511408022D20335
:101980000A4380211A62DA69C9051202120A0A435F
:10199000DA61032200219446FF27AD0064463E0031
:1019A0000C40E400A6408A080D48920012185059D5
:1019B0000131B0434026A640304350511C29EDD19F
:1019C000102219690A431A618022596992000A4358
:1019D0005A61F0BD00ED00E000000000FFFF00FFD5
:1019E00000E100E010B5002104F058FF10BD000038
:1019F00010B50822094904000DF07EF901230028E2
:101A000009D022780023FF2A05D10F2063780340F4
:101A1000023B58424341180010BDC04695210100C9
:101A200070B51E00CBB2002115000200080004F0C2
:101A300030FB041E04D12800FFF7D4FF200070BD46
:101A400043681E710560F9E770B50A680C0000284C
:101A500003D11A490330FFF75FF80500FE356B8F9D
:101A600049684B8013000021002B07D12D8D8D423A
:101A700008D27A21200004F011FF70BD9E681B6817
:101A80008919F1E70500A835296801312960002A84
:101A90000FD1B03002680A49D3180360094A230005
:101AA000012003F0B4FA0028E7D12000FFF79AFFE5
:101AB000E3E7916812685B18E9E7C046D11C0100B2
:101AC0000000FFFF02020000F7B50D004C68096836
:101AD00007000A000023002A46D15BBA9BB223719B
:101AE0001B0A6371A379FF2B03D1002940D13B234B
:101AF000A371E379002B06D14033002F02D09B2342
:101B00005B00FB5CE3712600083610222749300099
:101B10000DF0F2F8019000280FD12300183324496A
:101B20001022180000930DF0E7F8011E2BD11022AF
:101B300030000DF0F9F80123E3752C001023E35673
:101B4000022B02D12068002829D12900200004F0AE
:101B500075FC0123002805DA821C03D02800FFF75A
:101B600041FF00231800FEBD906812681B18B2E701
:101B70000B7C023BDBB2022BB9D80E4AD35CA371BB
:101B8000FF2BB6D1B3E70099019A380003F07EFE2F
:101B9000011ED2D0102230000DF0BDF8CDE704F0C8
:101BA000ADFE0028DAD020600400C7E7C52101009F
:101BB000A5210100162001001023F0B58BB0019182
:101BC000C3560600013326D14468002C03D15C497A
:101BD0000320FEF7A1FF0223E05E03F0C3FB050034
:101BE0003000247904F08AFE002803D13000FFF78A
:101BF000F9FE0EE03F2301001C40009404F03BFC82
:101C000006001023F356022B09D01621300004F0F1
:101C100045FE0BB0F0BD002300931D00F1E7706896
:101C20001022183047490DF067F80028EDD0300039
:101C300004F064FE041ED9D04668337EFF2B0ED11B
:101C4000002D66D103F080FB002855D12000CEE79F
:101C500021002800FFF738FF0028DAD05CE01836B2
:101C6000300003F0EFFE10220700374930000DF07E
:101C700043F8002801D0002F17D0019B002B0DD175
:101C8000200004F027FC0028E0D123002F4A30492F
:101C9000022003F0BCF90028BBD1D7E721003800AF
:101CA000FFF712FF0028D1D0EAE703AF3B00220084
:101CB0002900300000F07EFB0028AADB388BC0052D
:101CC000C00E03F04FFB051E00D180E7019B002BE7
:101CD0000BD1B97E009B220007A8FFF7A1FE011ED1
:101CE00000D196E72A00A03223E02100FFF7ECFEA6
:101CF000002800D18DE7ECE7280003F005FB002168
:101D000022000500009B0800FFF78AFE041E00D198
:101D10007FE7019B002B9BD100214023009A080004
:101D200013432200FFF77CFE011E00D171E72A0059
:101D3000A4321368280001331360FFF785FE68E7BB
:101D4000D11C0100C5210100A521010001020000F4
:101D50000000FFFFF0B59BB006AC10220021200070
:101D60000CF0E2FF9B4B082163609B4B0AA81B8889
:101D7000A3810AF06FFB2100022004F017FB974AB1
:101D800004AB5A8002A80AF05FFB02AB5988944B5F
:101D900099421DD8934B994224D2934B994200D13A
:101DA00015E109D8914B9942ECD1039F002F22D124
:101DB0008F490320FEF7B0FE81239B009942E1D8B2
:101DC000862304A95B4202A805930AF00FFBD9E71A
:101DD000884B99420AD8884B994203D2874BCB183B
:101DE000042BCFD8039800F0E7FFCBE7844BCB1848
:101DF000012BC7D8F6E701213800494204F032FB35
:101E0000061E27D043680220185E03F0ABFA00904C
:101E10000028CDD0020039000020A03253690133E0
:101E200053618B680968C0180029FAD19369B168B9
:101E30005B1A1B1893617B68002B07D0BA68272AAE
:101E400004D90F221B789343602B05D03800FFF78D
:101E5000C9FD97E70090EEE7380004F04FFD041E3F
:101E6000F4D00222282104F047FC00232374984276
:101E700001D12000EBE74568EB79002B01D17421FB
:101E80005CE069792B790902194349BA89B2AF79C3
:101E9000002901D13B2FECD1844241D0A36820001E
:101EA0008B423DD904F08EFC2B001833102255498B
:101EB000180001930CF020FF002847D00198FFF78D
:101EC00097FD002802D0009B002B3BD1019803F026
:101ED000B9FD009043425841C0B2002836D02800D6
:101EE0000830FFF785FD0028C3D10198FFF780FD7A
:101EF0000028BED1EB79013BDBB2EB71002BBED0E9
:101F0000002E03D03100200004F0B5FA200004F0C8
:101F1000C8FA0021002800D134E7FFF74DFE31E771
:101F2000002382689B1810228256022A02D0006881
:101F30000028F6D1283B8B42B6D21621200004F0AF
:101F4000ADFC1FE7019803F07DFDC3E70223292FB5
:101F500007D001333A2F04D03B00113B5A42534182
:101F60009B0023743900022004F051FA002802DC9F
:101F700000263A2F04D10121200004F07DFC012627
:101F8000102023002056194A124903F040F8002877
:101F900002D12000FFF726FD002E10D03A2F03D1EA
:101FA0000121200004F068FC2300104A39000220BF
:101FB00003F02DF8002802D12000FFF713FD3A2F7F
:101FC00000D0DFE6210000980AF05EFBDAE601218E
:101FD0000398A2E70000FFFF440400200502000070
:101FE000C34F0000C04F00000202000001020000C9
:101FF000D11C0100CF4F0000CB4F00003BB0FFFFD2
:102000002FB0FFFFA52101001FB50B4C0022A35EDE
:10201000002B0CD18021094A0193094B02920093B5
:1020200004220823C9000748FEF718FE2080002379
:10203000E05E04B010BDC046FC1500201920010070
:10204000551D0000FC11002010B5022104F00AFA11
:10205000002810D04368002B03D108490320FEF765
:102060005BFD8268272AF8D90F211A788A43602AF3
:10207000F3D1180010BD0300FBE7C046D11C0100DE
:10208000F7B50C4D01930C4B0F0000901100280088
:10209000140000269E5F0AF097FA00232360019B3C
:1020A00067816360009B26812800E36021000AF0BD
:1020B0005FFAF7BD44180020FC15002010B5082277
:1020C000094904000CF018FE0123002809D02278E9
:1020D0000023FF2A05D10F2063780340023B5842BA
:1020E0004341180010BDC0469521010010B51022D3
:1020F00003490CF001FE43425841C0B210BDC04636
:10210000C5210100F0B5036885B00400002B18D08C
:102110001A0066321278120713D5643301001022B8
:1021200068461D881F260CF0F6FD200001F0E0FD3A
:10213000002440272D113540200001F049FF041EE6
:1021400001D105B0F0BD20680028F5D0030064334C
:102150001B881B1133409D42EED10430694608F0C4
:10216000A3FA0028E8D02300002234331A70236831
:10217000200066331A78BA431A7001F001FFDBE7DA
:10218000F7B5089C00900D0001921F00002912D0A5
:102190003823FF33CB5C092B0DD10100102238000E
:1021A000FE350CF0B8FD6B8F01261B013B8300232D
:1021B000BB763000FEBD002C22D0230066331B7896
:1021C000DB071DD5200001F075FB061E18D023008B
:1021D00007222433009340331B881340032B0AD17A
:1021E000033A2100280001F0A5F9274B009A27495E
:1021F0002000FFF745FF3900200001F0FDFCD8E783
:102200003A002900009802F0E1F8061ED1D1002C16
:1022100004D0230066331B78DB0727D4291E03D0A4
:102220002B00FE333A21595E0222009801F064FC33
:10223000041E04D10100019804F030FBB9E7012726
:10224000002D07D0BC352B68002B03D0022200994B
:1022500003209847019B002B03D07621180004F03F
:102260001DFB3900200001F0B5F8A2E7230007228A
:1022700064331B8807001340012BEBD12300043A81
:1022800067331A70E6E7C04688130000C84F0000A5
:1022900070B50A4C01212000FFF712FB084DA96917
:1022A000002905D00E6828000AF08EF93100F7E702
:1022B00001F078FB2000FFF733FB70BD60180020B1
:1022C00044180020F0B5040085B0002803D133493C
:1022D0000320FEF721FC250003F052F82000304BCC
:1022E000FC35AB612C3001F00DF9FA239B002B6219
:1022F00026230122FF33E254E1222300D200FE33E1
:102300005A84012300265B426B612433FF33E65479
:10231000EA6A213BFF3B1343EB622249200003F0B2
:10232000D1FB2423FF33E6543823FF33E35C042B33
:1023300013D16B469F1C082301AD31000C222800ED
:102340003B800CF0F1FC05232B70033B2B812368B1
:102350006F601B69290020009847922300255B00CD
:10236000E5541149200003F0ADFBA84204DA200037
:1023700003F010F805B0F0BD402220000B4902F038
:1023800053FAFA212800890008F0EEFA220003002F
:10239000E03207492000FFF773FEE8E7D11C010097
:1023A0003075000085210100752101009521010093
:1023B000C34F0000F0B50C008FB006000800029279
:1023C000039302F0DDFF01215D48FFF779FA211E3A
:1023D00003D02300FE333A21595E300001F01CFB8C
:1023E0000700031E67D10500280001F0F1FD051E5E
:1023F0004DD13000FFF762FE002860D105AF3A00F2
:102400000299300001F03CFE051E76DB09A8FFF7BB
:102410006DFE002806D0002D6FD11022310009A8D2
:102420000CF079FC002C0ED02600FE363A23F25E2A
:102430007B8C9A4202D0200002F0ACFF3A23F25E7D
:102440007B8C9A4209D02223F85E02F08BFF0400B5
:1024500002F096FF00218C4203D02300FE333A2184
:10246000595E09A801F0D8FA039B0090029A210056
:1024700009A8FFF785FE00283DD00D2302AA9B186E
:10248000DA7F002C43D12F490320FEF745FB2B00B8
:10249000042234331B781342A6D0EB8E033A134246
:1024A000A2D0291D300008F05CF92B0035331B78D1
:1024B000834299D82B6864331D88ED05ED0E3000FA
:1024C000FFF7FCFD00280AD1002D08D0200002F003
:1024D00061FF28B202F046FF040002F051FF002C19
:1024E00026D00097039B029A21003000FFF748FE98
:1024F0000025002813D1762507E0029B002B03D08E
:102500007221180004F0CAF972256D4207E0230019
:10251000BC331B68002B02D03900022098470848C2
:10252000FFF7FEF9200002F035FF28000FB0F0BDE4
:10253000029B002BDFD07621029804F0AFF9DAE796
:1025400060180020D11C0100F0B58DB002900491FC
:1025500003921E00002803D1B8490320FEF7DCFADD
:10256000029802F00DFF0121B548FFF7A9F9039B7E
:1025700018788538032855D80AF06AFE04006300ED
:1025800033021403FA210020490008F0EDF9029FFC
:10259000FC37FB6A9B0745D5049BDB79FF2B41D1B8
:1025A000039B5B78002B3DD1072E3BD9039D330065
:1025B00008352C00083B05930393039B002B1BD18C
:1025C000049C08342000FFF791FD002809D1059BE9
:1025D000002B2FD1029B2000FE333A21595E01F0DF
:1025E0001BFA0622FB6A134093421BD100222100F2
:1025F000029800F0CFFC15E0039B9E4212D3637853
:10260000002B0FD02378012B06D06378039ADB00D0
:10261000D21A0392E418D0E704980830FFF766FD59
:102620000028F2D08648FFF77BF9029802F0B2FE4C
:102630000DB0F0BD6B78059ADB00D21A0592ED184B
:10264000C5E7049D08352800FFF738FD0028E9D0CC
:10265000049BDB79FF2BE5D1039B5C78002CE1D157
:102660000F2EDFD93300039F103B103707933B0039
:102670000799002900D097E0002C00D1A6E02000A7
:1026800002F03EF806900028CCD0E379A2791B0234
:1026900013435BBA6B4A9BB25A430592039A039B5E
:1026A000D4799B7924021C43029BFE333A21595E64
:1026B000002C00D195E0280001F0ECFA64BAA4B235
:1026C000051EAFD0FA239B005C43021D23005E4928
:1026D000FFF7D6FC059BA34200D90594039B1B7909
:1026E000002B03D09B22029952008B54039B039A28
:1026F0001C7A5B7A1B022343947A24042343D47A02
:1027000024061C4311D0029E24BAFC36B3699C42B5
:102710000BD0029A02984D4BD0324D49FFF7B0FCD6
:102720000298B4612C3000F0EDFE039A039B527BBB
:102730001B7B12021A43039B9B7B1B041A43039BC4
:10274000DB7B1B06134303D0029A1BBAFC321362D5
:10275000002D13D01022029B2C331B78934303D0FF
:1027600002982E3001F076FE1022029B2D331B784A
:10277000934303D002983E3001F06CFE079B002B80
:1027800039D1029C3348E034210009F01DFF029842
:1027900000F0B2FC0322059B2F499B085343220003
:1027A0000298FFF76DFC3DE78E4200D23AE75A7877
:1027B000002A00D136E71878232803D1002C00D056
:1027C00030E71C00D200891A9B1852E7029BFC33A9
:1027D000DB6A9B0700D525E701235B42059306943E
:1027E0005CE7280001F0B8FA051E00D176E7FFF794
:1027F00089FC250072E73B78032B48D008D8012BD1
:1028000014D07B78079ADB00D21A0792FF18B5E73D
:10281000052B23D0222BF4D1069A3900039801F01E
:10282000C5FF059B8342ECD90590EAE73B00039A7C
:102830000499029800F09AFEE3E7C046D11C01001B
:102840006018002060EA0000CD4F000000DD6D0040
:10285000CE4F000044180020C34F00007B78012BAE
:10286000CFD1039B1B78862BCBD17A793B7912028F
:102870001A43BB791B041A43FB791B061343C64A50
:102880001BBA9342BDD9029AFE321385B9E77B7910
:102890003E791B023343BE793D7A36043343FE79D9
:1028A00036061E437B7A36BA1B022B43BD7A2D04B3
:1028B0002B43FD7A2D061D437B782DBA042BA0D126
:1028C000039B1B78862B9CD13B0010331800089388
:1028D000FFF7F4FB002894D1AE4292D34022FB785C
:1028E000134204D0BA780899029801F09DFFFB7852
:1028F0007F2B0AD80222029BFC33DB6A134200D1F1
:102900007FE7069B002B00D17BE7BB7809937B799F
:102910003C791B022343BC7924042343FC7924061D
:102920001C431CD1042514E0230034331B782B42B4
:102930000FD0230035331B78099A934209D1201D0B
:10294000089907F00EFF099B834202D8200001F08E
:10295000F1FB200001F03CFB041EE5D151E7731CA4
:1029600005D08E4B9E4236D8FA239B005E436B1CEB
:1029700005D08A4B9D4231D8FA239B005D43029BD0
:10298000099AFE333A20185E08990095330001F049
:10299000A9FC041E00D134E7069B002B03D00100E4
:1029A000180001F045FCFA7853B2002B03DA01233A
:1029B000E18E0B43E38640231A4203D00222E38ECA
:1029C0001343E386AE4200D92E00059BB34200D8E4
:1029D00017E7059615E702267642C8E702256D42FD
:1029E000CDE7049BDB79FF2B00D01BE6039B5B78D4
:1029F000002B00D016E6172E00D813E6039B1B7A97
:102A0000FF2B00D10EE6049B083318000593FFF757
:102A10006DFB00281FD1039B029808331900069311
:102A200002F000FF0790002800DAFBE53700039D65
:102A3000183F18352A003C00002C15D10598FFF7E7
:102A400055FB00281BD023000094059A0299069894
:102A500002F062F9E6E504980D22514918300CF0B5
:102A60004BF90028D7D0DDE5A64200D2DAE553784D
:102A7000002B00D1D6E5DB00E41AD218DCE7029B7C
:102A8000FC33DB6ADB0707D4029B0322FE333A21C7
:102A9000595E059801F030F80024260008E02B78F4
:102AA000012B29D0212B34D06B78DB00FF1AED18D5
:102AB000002FF4D12300039A00960499029800F0A5
:102AC000B3FB029A079B944663442C331B780400A3
:102AD0009B0658D51300FE3303933A21595E06989E
:102AE00000F09AFF061E04D0030066331B78DB0754
:102AF00013D40021200043E00222029BFC33DB6A56
:102B0000134208D12B00039A0499029800F02EFD7D
:102B1000CAE72C00C8E72E00C6E7029BC025FC339D
:102B2000DB6A9B0700D4803D049B1B7EFF2B22D1D8
:102B3000029B9A2719007F002D31DA5DFF310AA828
:102B40000CF0E9F8029BD95D002910D022000AA8F8
:102B500002F011F8011ECDD00C00290022000698C9
:102B600001F03CFF051E00D09CE02900C2E72023B5
:102B700021001D43F0E720231D43EEE7210028003C
:102B800003F08CFE4EE5049B1B7E0090FF3B5A42F7
:102B90005341DBB259E7C046FF04000037894100CA
:102BA000B5210100049BDB79FF2B00D03AE5039BA4
:102BB0005B78002B00D035E5172E00D832E5039B5B
:102BC0001B7AFF2B00D12DE5049B1B7EFF2B04D12C
:102BD000039B1B795B0600D524E53300039D183B5E
:102BE00018352A001C000593002C33D1029B039852
:102BF000FE333A21595E083000F00EFF071E00D167
:102C000010E5030066331A7801231E001A4200D132
:102C100008E5059B002B28D1002C0ED1039B1B79C6
:102C20005B060AD53B00072264331B881340022B46
:102C300003D03900029800F073FD0122029BFC339F
:102C4000DB6A134000D0EDE4039A3900029800F0EB
:102C500079FDE7E4A64200D2E4E45378002B00D1EA
:102C6000E0E4DB00E41AD218BEE72B78022B08D090
:102C7000212B0ED06B78059ADB00D21A0592ED1845
:102C8000C7E72B00039A3900029800F05BFD34007F
:102C9000F0E7019700952B00039A0499029801F040
:102CA0005BFCE7E7059A002109F0DAFD041E00D17C
:102CB00064E7FF234268D37100231A00190018004B
:102CC00003F0E7F9051E00D14FE7FA21039B4268A4
:102CD0005B8F890053800460002007F045FE3200BE
:102CE00003003432014928005BE5C046C24F0000B2
:102CF00070B50D00040002F043FB002D06D020004B
:102D000000F0FAF9200002F045FB70BDFA2128001E
:102D1000890007F029FE9123FD225B00E254220086
:102D2000FC32D16A1F3BFF3B99430500D162200072
:102D300000F020F922002B00E03202492000FFF7CA
:102D40009FF9DFE7C34F000070B50400242602F0AE
:102D500017FBFF361449200001F020FBA35D022B76
:102D60001FD9FA25033B2D019D40104BED18104B48
:102D70009D4200D91D00A8420FD90E49200002F043
:102D800053F8A35D092B01D80133A35522002B0072
:102D9000E03205492000FFF773F9200002F0FAFA4B
:102DA00070BD024DE7E7C046C34F0000102700008A
:102DB00060EA000085210100F7B50D000400012143
:102DC0006648FEF77DFD664BE81810280DD80AF01E
:102DD0002BFA090918250C292D10103B0C3F43BD77
:102DE00014C13100200000F055FC5C48FEF798FD4E
:102DF000F7BD200000F077FCF7E7200000F082FB31
:102E0000F3E72300574A5849022002F000F900284E
:102E1000EBD10921200003F041FDE6E72000FFF798
:102E200093FFE2E7200000F045F9DEE7200000F024
:102E3000A1F8DAE7220010213432137820008B4306
:102E4000137001F09DF8D0E7200000F015FECCE7EC
:102E5000200001F0B1F9C8E72368643318881F2304
:102E60000011184002F07EFA0500FDF749FDFA2234
:102E7000002392000AF0B6FB0600280002F080FA58
:102E8000A36B9E4230D321002F00143137482E37D8
:102E9000261D09F099FB3100380007F062FC230081
:102EA000353301931B78834203D83900280002F0A0
:102EB0000FFF2F003E373100380007F052FC019B16
:102EC0001B78834203D83900280002F001FF22005A
:102ED00004213432137820008B43137001F050F832
:102EE000280002F057FA80E7E36B9E42F8D32800EF
:102EF000271D39002E3007F034FC230035330193B1
:102F00001B78834207D829001F232C310A789A4363
:102F1000173B13430B70280039003E3007F021FCAB
:102F2000019B1B78834208D829001F222D310B7882
:102F300093431A00082313430B702200A36B14322F
:102F40009B1B0B492000FFF79BF8C9E72000FFF708
:102F5000D9F84AE7200001F07DFA46E76018002022
:102F600040B0FFFF020200000000FFFF44180020F5
:102F7000CC4F000010B5040002F002FA002C03D17F
:102F800003490320FDF7C8FD200002F003FA10BD3D
:102F9000D11C0100F0B5002589B00590079103927E
:102FA000280001F087F9051E01D109B0F0BD039B8F
:102FB000002B08D000200090039B079A0021059861
:102FC00001F088FFECE7039E07273400059BFE33E2
:102FD0003A229B5E0693220001213A409140E30889
:102FE000EB1829331B7819420DD0E0B205F0EEFA48
:102FF000031E08D00026428A417C007C009606F021
:1030000084FE061ED6D00134102CE4D10024210009
:10301000280001F02BF9041E0FD16B699CB2FDF75B
:103020006FFC234A00230AF0DDFA211A89B233002B
:103030002A00286906F08FFEBDE71F22236864334B
:103040001B881B111340069A9A42E0D1FDF758FCE9
:10305000FA22002392000AF0C5FA0700A06B049040
:10306000431C05D0FA21C01B89000AF0FBF804902C
:10307000E06B0300421C05D0FA21C01B89000AF056
:10308000F1F803000122E18E0A40D201890701D53F
:1030900040210A432100271D353109783800019667
:1030A0000092049A01F072FD061EB0D182E7C0467C
:1030B000008793030300643370B505001888C005CA
:1030C000C00E02F04FF9041E03D10A490320FDF798
:1030D00023FD02F055F92300FC33DB6A5B0704D5BE
:1030E000291D00222000FFF755FF200002F052F9B1
:1030F00070BDC046D11C0100912300225B00C25468
:10310000020010B5FC32D16A1F3BFF3B0B43D36278
:10311000FFF730FF10BD0000F0B51F000B0085B0B9
:10312000083302900E0003923949102218000B9DBB
:1031300001930BF0E1FD002862D00A9B002B5FD0C9
:10314000002D48D1FC79B879240204435AD00A9B57
:10315000039A3100029800F009FA029B0198FE33AD
:103160003A21595E00F058FC05000220002D30D0B5
:10317000390028002E0000240831082214300BF0FA
:10318000CAFDFB79BA791B0213435BBA9BB2019368
:10319000204B214F543600229B5E310038000293B1
:1031A00009F012FA019A1D4B6C655343AB651C4B39
:1031B00031007381029B2D6638003381643509F03C
:1031C000D7F92B88174A1A408023DB0013432B8042
:1031D000200005B0F0BD2B00012466331B7823428C
:1031E000B0D0280008221430B9180BF085FD002853
:1031F000A8D0C02364352A88DB0020001A42E8D119
:103200000420E6E7002DFBD0280000F035FCDFE7C6
:10321000C5210100FC1500204418002060EA0000D0
:10322000C94F0000FFF9FFFF37B51C1E01D1002078
:103230003EBD0025069B01950093230001F08CF90B
:10324000C31EDBB2012BF2D92200E179A379090276
:10325000194349BA89B208322B0006F039FDE7E775
:10326000F7B50C4D01930C4B0F0000901100280096
:10327000140000269E5F09F0A7F900232360019B3C
:1032800067816360009B26812800E360210009F0CC
:103290006FF9F7BD44180020FC15002070B505003B
:1032A0001400081E0DD02A00683212789A4209D103
:1032B000643528880022A35EC005C00EC01A431ED4
:1032C000984170BD280002311A001C300BF014FD2B
:1032D0000028EDD00120F4E710B502490320FDF7E6
:1032E0001BFCC046D11C0100F0B585B00C000700E6
:1032F00015001E0000F052FD002C03D11D490320D3
:10330000FDF70AFC002D2CD023000068FE333A2282
:103310009A5E030064331B88DB05DB0E9A4220D1E2
:103320000430310007F0C0F900281AD02300FC3324
:10333000DB6ADB0713D59A2321005B002D31E25CA9
:10334000FF3102AB200002F033FE082807D1002332
:1033500002AA0F21180006F0BBFC002802D105B01C
:10336000F0BD0020009033002A002100380001F059
:103370006FFCF4E7D11C0100F8B5030064330500CD
:1033800018880E00C005C00E01F0ECFF041E01D12C
:10339000FFF7A2FF2F0001F0F3FF6737002E01D0E7
:1033A00000233B70281D030021000022FFF79CFF33
:1033B00023002A00FC33280024321B6A0449FFF74B
:1033C0004FFF200001F0E6FF3B7801333B70F8BD72
:1033D000C04F000003006433F0B5040018880723D1
:1033E00089B003400E000193002B78D0022B00D946
:1033F00077E0C005C00E01F0B5FF3C490700200092
:1034000000F0CCFF0290002F03D139490320FDF7D3
:1034100083FB380001F0B4FF3B00FC331D6A029BC4
:10342000AB4259D9230067330293002E02D0002308
:10343000029A1370019B012B26D1FA20029B2D4981
:1034400040001E7807F090FA02002B4BF53A023E3E
:10345000FF3AF6B203909A42D7D8112ED5D800235E
:1034600001982A001900B0400AF0DCF8039A002302
:103470000AF0D8F8FA22002392000AF0B3F81F4BA2
:103480000500984200D91D0000231D4A2100049226
:10349000059380235B040693FF230E2004AA137375
:1034A000637C1231537304AB0222C0180BF033FC5F
:1034B000201D04AB00223900FFF716FF22002B006D
:1034C00024320A492000FFF7CBFE029B1B78122B07
:1034D00002D8029A01331370380001F05BFF09B083
:1034E000F0BD2000FFF748FFF9E7C046C14F0000DC
:1034F000D11C0100DC050000E703000060EA0000C9
:10350000FF020000030010B50400E8331968480802
:10351000091807F029FA23002200EC331860A432BE
:10352000024B03492000FFF79BFE10BD00DD6D003C
:10353000CE4F000070B516000A000D00072164325E
:10354000138804008B433343138001F019FF002CD0
:1035500008D02300BC331B68291D002B02D0320089
:1035600003209847200001F015FF70BDF0B585B02D
:10357000051E0192029303D144490320FDF7CCFAC2
:10358000030008312F000391FE333A21595E03985E
:1035900000F042FA0122FC37FB6A0400134201D119
:1035A000FFF79AFE3823FF33E85C029907F094F99D
:1035B000061E5BDB002C26D02300012266331B781D
:1035C000134220D0230068331B7883420DD0FB6A5E
:1035D0009B074DD421002E48243108F0F5FF03222B
:1035E00021002800FFF7A6FF08E002002000029B50
:1035F0001C30991C0BF080FB0028E8D123006633B7
:103600001B78DB0713D42B00FE333A21595E0322CB
:10361000039800F071FA041E28D0019B1B78872BB9
:1036200005D102000821643213888B4313802300E4
:1036300066331B78DB0719D5019B1B78862B1CD1C1
:10364000210008226431088802430A80FC35EA6AB6
:10365000920701D5852B09D02300200002996833F9
:103660001E7002311C3032000BF055FB05B0F0BD6E
:10367000019B1B78852BADD1C0E7872BE6D02100BD
:10368000082064310A888243DFE7C046D11C01006C
:10369000441800200300643310B504001888072381
:1036A0000340022B08D0052B0FD0012B0CD1002199
:1036B0002000FFF78FFE07E0230067331B78022B03
:1036C000F5D9200000F0D8F910BD230067331B782E
:1036D000022BECD9C005C00E01F044FE01222100EE
:1036E000FFF728FFE3E70300643370B50400188890
:1036F00007230340042B03D00325062B01D070BD04
:103700000525C005C00E01F02DFE2A002100FFF79F
:1037100011FF052DF3D101212000FFF75BFEEEE73D
:1037200070B50D0004000622FFF704FF2A00FC34E8
:1037300028002432E3690249FFF792FD70BDC046BC
:10374000C74F0000F0B5050085B00C0016001F0043
:10375000002903D155490320FDF7DEF90028F9D0EF
:10376000002B11D00300FC33DB6ADB0701D4FFF729
:10377000B3FD3823FF33C05C390007F0ADF801908A
:10378000002802DA05B0F0BD01932300072264335C
:1037900003931B881340022B0AD123006433029346
:1037A0001B88039323006833002F2BD11F7030E058
:1037B0003378882B02D133799B06EED42B00393332
:1037C000FF330293029A019B39002000FFF766FD48
:1037D0000028E2D13378882BD4D1039B1A880523A3
:1037E0001A42CFD033795B06CCD5019B029A3900BF
:1037F0002000FFF753FD0028C4D121002800FFF767
:103800008FFFBFE72000019AB91C1A701C300BF023
:1038100082FA33782100882B02D133795B0638D4C1
:103820002431234808F0D0FE032221002800FFF7AE
:1038300081FE3378882BA5D13279930630D52100CB
:1038400050B264310E880823002826DB9E430E8088
:10385000530600D596E726000722029B24361B88D4
:103860001340062B00D08DE72A003932019BFF322E
:1038700039002000FFF712FD002800D182E7310057
:103880000B4808F0A1FE032221002800FFF752FE9A
:1038900078E72800FFF744FFCBE733430B80D7E7F7
:1038A0000723039919400229D2D1C8E7D11C01008E
:1038B0004418002007236430008803400120013BA6
:1038C0009842804140427047CB080722C35C0120E8
:1038D000114088401840431E9841C0B2704710B54F
:1038E00008300023C15E08F01FFD10BD10B5102286
:1038F00003490BF001FA43425841C0B210BDC04623
:10390000C521010070B5051E03D101200123184017
:1039100070BD0C1D2000FFF7E9FF0028F5D1210044
:10392000280006F0C1FEF1E70300002110B5663360
:103930001B788B4203D16C220BF0F6F901210800B1
:1039400010BD000070B5060010000D001400FFF758
:10395000EBFF002E04D0201D102231000BF0DBF90C
:103960001F2D03D905490320FDF7D6F864342188BB
:10397000034B2D0119402943218070BDD11C01004A
:103980000FFEFFFF064A1368181E04D01868834212
:1039900002D100231360704702681A60FBE7C0463B
:1039A0004018002010B50249024808F033FE10BD4F
:1039B000DF38000044180020F7B500260700350066
:1039C0000191144C1F223419230064331B881B11EE
:1039D0001340019A9A4210D0002D05D1230066337E
:1039E0001B78002B00D12500D8236C365B009E424B
:1039F000E7D1002D08D12800FEBD21003800FFF7D7
:103A000081FF0028E8D025002A0001993800FFF73F
:103A100099FFF0E764180020F8B5002506000F00B4
:103A2000A84203D112490320FDF776F811482C185B
:103A3000230066331B78002B07D1D8236C355B003D
:103A40009D42F3D100242000F8BD23001F226433DF
:103A50001B881B11134003D0002F01D09F42ECD1D3
:103A600004304019310006F01FFE0028E5D0EAE7D7
:103A7000D11C0100641800200200012170B56632DB
:103A8000137804008B430100194D13703431280062
:103A900008F09AFD21002800243108F095FD21004E
:103AA0002800443108F090FD21002800543108F02E
:103AB0008BFD10490A68002A05D010681300844263
:103AC00005D1FFF75FFF2000FFF72EFF70BD1B68D9
:103AD0001868844202D09A42F9D1F4E7002BF2D060
:103AE00022681A600A689442EDD10B60EBE7C04689
:103AF0004418002040180020F0B585B001900291D4
:103B0000002803D13A490320FDF706F80724224094
:103B10001300043B0092022BF4D902990198FFF79D
:103B20004BFF002844D1FFF72DFF0500061E3CD0B7
:103B30000400230001220026663303931B7893437D
:103B4000B34216D12700C02164373B88C9000B421D
:103B50000FD12000FFF790FF220002990198FFF794
:103B6000F1FE012226003B8800990B433B80039B1A
:103B70001A70204F3B68002B10D01B6823603B68F5
:103B80001C603C60002E10D1FFF7FCFE0400854253
:103B9000CFD13B68002B03D12D6005E02460F0E716
:103BA0001B682B603B681D603D60300005B0F0BDB8
:103BB0000100012366310D781D4208D106006436EC
:103BC00032882B43A243009C144334800B7003685B
:103BD0000600002BE9D1074B1A68002A06D01268AC
:103BE00002601A68106018600600DEE70060FAE7FD
:103BF000D11C010040180020F8B505000C00002879
:103C000001D0002903D121490320FCF785FF2F00B3
:103C1000011D1022200064370BF07DF83B8808223C
:103C200023831B49200026000BF066F8103600287D
:103C300007D02378FF2B1ED10F2263781340022B6D
:103C400019D13888C005C00E01F08CFB0028DAD0ED
:103C50000300FC33DB6A9A070DD429000C31DB0723
:103C6000D1D53823FF33C05C320006F01BFE00289C
:103C700001DBA076F8BD2B00290068331A781C31CF
:103C8000A27630000BF047F8F4E7C046D11C0100E3
:103C900095210100F8B5154C060025680F00002D90
:103CA0001DD02B0064331B88DB05DB0E99421BD132
:103CB000291D06F0F9FC002816D0082366352A785D
:103CC00013432B702000F8BD39003000FFF73AFE97
:103CD00008222368663319780A431A70F2E7FFF75F
:103CE0006BFE021E2060EFD10020ECE72C160020B6
:103CF00010B50400006800280CD0020008216632CC
:103D000013788B431370FFF70FFE1422002120005D
:103D10000BF00AF8034B1A68A24201D100221A6084
:103D200010BDC046141A00200A4A1300002801D012
:103D3000030014331432934202D300231800704757
:103D40001968002903D0663109780029F6D11433A7
:103D5000F1E7C0462C16002070B50E4D2C68002CE3
:103D600015D0230064331B880026DB05DB0E994247
:103D70000ED1211D06F098FCB04209D0663423789C
:103D80002E001B0704D404490320FCF7C5FE2600BF
:103D9000300070BD2C160020D11C010070B5154DEF
:103DA0002C68002C07D00722236864331B8813403B
:103DB000013B012B11D800200726FFF7B5FF002893
:103DC0000DD12000FFF7B0FF002C01D0002802D158
:103DD0000020FFF7A9FF28602C68200070BD036851
:103DE00064331B883340013B012BE6D92860040073
:103DF000F3E7C046141A002070B505000C00002837
:103E000004D00368002B01D0002903D114490320FA
:103E1000FCF782FE1022002120000AF085FF00231B
:103E2000621CD3770F4A1268AA4209D107222B6875
:103E300064331B881A400123013A93429B415B4241
:103E40002000A21CD3772B681022191D10300AF015
:103E500062FF2B6864331B88DB05DB0E638470BD57
:103E6000D11C0100141A0020F0B587B0050005919F
:103E700002920393002A03D13F490320FCF74CFE32
:103E80000298FFF733FD0028F6D1039B013B7F2BFF
:103E9000F2D804000190019B9B010493049A374BD4
:103EA0009F181300354A3533D35C039A3E689A4213
:103EB0002ED1002E5CD033001F2264331B881B11CF
:103EC0001340059A9A4223D131002800FFF71AFDCA
:103ED00000281DD0294B0299181D049BC01806F01C
:103EE00040FC039B834213D8002D04D0301D1022C8
:103EF00029000AF010FF019B3C009A011F4BD35888
:103F00004022663319780A431A70200007B0F0BDCA
:103F1000002C02D1002E00D13C00019B0133019303
:103F2000082BB8D1002CF0D005992800FFF744FDEC
:103F3000061E206006D10100402220000AF0F4FE97
:103F40003400E2E7020005992800FFF7FBFC20009F
:103F5000402208C8663319780A431A706B461D7BE5
:103F600002992A0006F01EFC230035331D70CCE7B1
:103F7000002CD2D1D0E7C046D11C01004016002051
:103F800070B50400006800281DD0802100230E4D6C
:103F900089005A19944202D01668B0420BD04033BF
:103FA0008B42F6D102004021663213788B431370A6
:103FB000FFF7BAFC02E0054B9A42F3D240220021FF
:103FC00020000AF0B1FE70BD40160020401800200D
:103FD000084B002801D003004033074A934202D324
:103FE0000023180070471900343109780029F8D1EE
:103FF0004033F3E74016002040180020044A002315
:10400000904203D3034B98429B415B421800704798
:10401000401600204018002070B505000C00002854
:1040200004D00368002B01D0002903D113490320D9
:10403000FCF772FD011D102220000AF06CFE2A0020
:10404000002135321278631CDA77A31CD9772A68ED
:104050002000130064331B883435DB05DB0E6384DA
:104060002B781030042B03D110220AF05DFE70BDB6
:10407000111D10220AF04FFEF9E7C046D11C0100C5
:10408000F0B585B0070003911600002801D0002A82
:1040900003D126490320FCF73FFD00252C000295A3
:1040A00023482B18019334331B78002B0ED0043097
:1040B0004019390006F055FB029B984206D9019B36
:1040C00035331B78834201D8019C02908023403510
:1040D0009B009D42E4D1002C04D0230034331B7894
:1040E000042B1DD1FFF75AFE002814D1002C17D144
:1040F000200001F009F9041E03D17220404205B0EE
:10410000F0BD2300BC331B68002BF1D0039A3900AB
:1041100001209847ECE73100FFF76EFE0020EEE744
:1041200031002000FFF778FFF8E7C046D11C0100FE
:10413000401600200200042170B5040034321378C8
:104140008B431370FFF71CFF094BE41AA411072CD3
:104150000CD8084D210028352800FFF7B5FB0028B2
:1041600004D00122A2402B7893432B7070BDC0462F
:10417000401600200016002070B5051E09D10C491C
:104180000320FCF7C9FC2000FFF7B0FB002808D192
:1041900070BD084C210006F087FA0028F3D02000FB
:1041A000F6E71022290020000AF0B5FDF7E7C04627
:1041B000D11C01000016002070B500282DD0194D2B
:1041C000290006F071FA00281AD0002428002100E6
:1041D0002830FFF779FB002819D10134082CF5D1DC
:1041E0000024280021002930FFF76EFB002808D1A9
:1041F0000134102CF5D12C22002128000AF094FD66
:1042000070BDE0B204F0E2F900230374F0E7064B5E
:10421000A001C018FFF78EFFDFE704490320FCF779
:104220007BFCC0460016002040160020D11C010077
:1042300010B5002806D0002904D00B0034331B78B9
:104240005B0703D407490320FCF766FC064B591AA9
:104250008911072905D801228A40283003781343A1
:10426000037010BDD11C010040160020F8B50029D4
:1042700007D00F4B5B1A9B11072B02D9002420009B
:10428000F8BD283004260500094F0800FFF7A0FEFE
:10429000041EF3D0230034331B78334206D0E11BD5
:1042A00089112800FFF710FB0028E8D12100ECE776
:1042B0004016002070B50A4D2C00002801D02C308B
:1042C00004002B002C339C4202D30024200070BD3C
:1042D0002000FFF70BFB0028F8D02C34F1E7C04694
:1042E00000160020F7B51E0013000A000100002090
:1042F000089DFFF7B9FD041E44D0020004233432A8
:1043000011780B431370AE4203D220490320FCF70F
:1043100003FC731C01D16B1C36D0FCF7F1FAFA22B6
:104320000023920009F05EF907006B1C20D0184BA7
:10433000184800229B5E0193230014331900009358
:1043400008F042F900236361134BA561E383019BED
:104350002462A38300990F4808F00AF9AB1C07D028
:10436000EB19013303D13B005A1E9341ED18ED19AF
:10437000F31C05D8F31901335A425341F618F619C4
:10438000A663E5632000FEBD2E00F9E7D11C010005
:10439000FC15002044180020CC4F0000002210B56E
:1043A000094B9B69002B03D101225242100010BD22
:1043B0005C6812195C898C4204D10028F6D0DC6854
:1043C0008442F3D01B68EDE744180020F8B50700DD
:1043D0000C001600002901D10020F8BD08221A495E
:1043E0000AF08AFC002807D03B78FF2BF4D10F227B
:1043F0007B781340022BEFD12300390032000125D6
:10440000FC33DB6A083110322B4203D10F49032001
:10441000FCF782FB3823FF33E05C06F043FAC0B2BE
:104420000028D9D01022B07639003000FE340AF0CE
:1044300072FC3A22A35EF8221B0152001340044A88
:10444000280013433383C8E795210100D11C0100E4
:1044500006040000F0B585B0050001F0F3FA040091
:10446000FFF79CFC061E5ED00068FFF723FA0028C9
:1044700059D0002C52D023003068FE333A229A5E85
:1044800003001F2664331B881B1133409A4203D05C
:104490002C490320FCF740FB043003002A002100D4
:1044A000FEF722FF2900200001F0BCF921182C3171
:1044B0000B7805001E40102E32D007221A40013A18
:1044C000012A36D82200FC32126A013301920B70A5
:1044D0002F013B003E002E33E31802931A4BF036B7
:1044E00000229B5EA61931001848039308F06CF86F
:1044F00000230C352D0165192B63019BE4196B63B7
:104500002300134AFA331A80029A02331A60039B7B
:10451000F834238031000D4808F02AF805B0F0BDCA
:104520000C4B0193D4E7002CF8D02900200001F0B7
:1045300079F924230022FF33E2542000FEF704FC23
:10454000ECE7C046D11C0100FC15002044180020F7
:10455000CF4F000060EA0000F0B5040089B00E0003
:104560001D00002803D15F490320FCF7D5FA5978D4
:10457000022902D0042009B0F0BD1378FC30C06AD3
:10458000882B00D09EE0C307F4D59A2321005B005E
:104590002D31E25CFF3106AB200001F009FD082857
:1045A000E8D16B7A2A7A1B021343AA7A697B120438
:1045B0001343EA7A090212061A432B7B0798194320
:1045C000AB7B1B041943EB7B1B060B430699914203
:1045D000D0D19842CED1AB78012B4BD0002B03D059
:1045E000022B4DD0A878C6E73100EF79AB793F02B6
:1045F000183120001F4301F015F97FBABFB2060041
:10460000012F35D0384B5F43384BFB181F210293E5
:10461000A3192C331A7837018A43110010220A4358
:104620001A70330105932E33E3180393304BF037A0
:10463000E71900229B5E39002E48049307F0C4FF5F
:1046400000230C363601A6193363029B2A4A736392
:10465000059B3900E4182300FA331A80039A0233C9
:104660001A60049BF8342380224807F081FFB9E7E1
:10467000224BCBE731002000183101F029FBB1E7D4
:1046800023003000FE333A21595E0830FFF764FB07
:10469000071E00D167E7FFF72BFB0020FFF744FB65
:1046A000002806D12423FF33E0542000FEF74CFB02
:1046B00098E73B68002B00D155E730001830FFF732
:1046C000C9FE8FE7084200D154E7872B00D051E79D
:1046D0000F9B310001930E9B200000932B00FEF7EF
:1046E0001BFD48E7D11C010060EA0000A015FFFF98
:1046F000FC15002044180020CF4F0000307500004A
:10470000F7B543780600032B02D000242000FEBD3D
:104710000830FFF731FD041EF7D0F378B2781B02A2
:1047200013435BBA9AB2737931791B020B435BBABC
:104730001B04F5791343B2792D02154302696DBA52
:10474000ADB29A4208D30361FCF7DAF8114A0023AC
:1047500008F048FF28186061002D00D10E4D26009A
:104760000E4B0F4F00229B5E18363100380001932C
:1047700007F02AFF0023A3610A4B64625D430A4BE2
:10478000E5616384019B31002384380007F0F0FE6B
:10479000BCE7C0460087930310270000FC150020EB
:1047A0004418002060EA0000CB4F0000F7B54B78BA
:1047B0001500022B30D18A78402A2DD80378862B19
:1047C0002AD1CC798879240204430F260120CF789E
:1047D00064BA3B090340A4B23E4000930831230071
:1047E000300003F015FF002D03D10D490320FCF725
:1047F00093F907231F40063BBB402935F608AE1945
:104800003178DBB2002C04D1994331700548604304
:10481000FEBD0B433370F9E701204042F8E7C04684
:10482000D11C010060EA0000F0B5040087B00E0062
:1048300017000021102202A80AF076FA23000122B4
:10484000FC33DB6A134241D09A2321005B002D31F7
:10485000E25CFF3104AB200001F00CFC3A003100B7
:1048600002A805F09FFF02A9200000F0DBFF002353
:1048700005000193984209DA07333A0002A92000A3
:1048800001F056F9051E21DB01230193082210498E
:1048900030000AF031FA002807D03378FF2B0DD111
:1048A0000F2273781340022B08D11F2163192C3378
:1048B0001A788A43110010220A431A70019B002BB8
:1048C00004D028012E302018FFF7C4FD07B0F0BD3A
:1048D0009521010070B50600180007F0C1FF041E05
:1048E0000FD0FF234268D37100231A00190018006B
:1048F00001F0CFFB051E06D12100200001F0BBFD19
:104900002C00200070BD0022B35E4268538004601A
:10491000F6E7000010B502490320FCF7FDF8C04699
:10492000D11C010070B504000800002C02D02378CF
:10493000FF2B01D1FFF7EEFF18230022872107F09C
:10494000EFFE002849D0002243681A715A719A710B
:10495000DA716278217812020A43A1786579090434
:104960000A43E1782D020906114322791543A27901
:1049700012041543E279197212062A430D0A5D7278
:104980000D0C090ED972110A1A735973110C120EFB
:104990009D729973DA73627A217A12020A43A17ABC
:1049A000657B09040A43E17A2D0209061143227B43
:1049B0001543A27B12041543E27B0C0A12062A431C
:1049C00019745C740C0C090E9C74D974110A1A7554
:1049D0005975110C120E9975DA7570BD70B5040019
:1049E0000D001000002C02D02378FF2B01D1FFF71F
:1049F00091FF18230022882107F092FE00284BD057
:104A00001F229543002243681D71DA719A715A7111
:104A10006278217812020A43A178657909040A4371
:104A2000E1782D020906114322791543A279120477
:104A30001543E279197212062A430D0A5D720D0CB4
:104A4000090ED972110A1A735973110C120E9D7244
:104A50009973DA73627A217A12020A43A17A657B2A
:104A600009040A43E17A2D0209061143227B15430A
:104A7000A27B12041543E27B0C0A12062A43197426
:104A80005C740C0C090E9C74D974110A1A75597552
:104A9000110C120E9975DA7570BD10B5082300223D
:104AA000852107F03DFE002805D0002243681A71D9
:104AB0005A719A71DA7110BDF8B507000E00150031
:104AC0001C00002210238621079807F029FE0028E9
:104AD0001AD03F22436824BA9643220A5A72220C03
:104AE0009A72069A6DBA12BA110AADB29D711C7211
:104AF0002D0A240E1A735973110C120E1F715E7158
:104B0000DD71DC729973DA73F8BD10B5002304000F
:104B10001000CAB2F82107320A40190001F0D2FD94
:104B2000002804D0426814708368DB08537010BDFD
:104B3000F8B507000E0018000231FFF7E6FF041E6B
:104B40000CD0436800219D1C836828009A1E0AF03F
:104B5000EBF83200390028000AF0DDF82000F8BD3B
:104B600010B5002801D0002901D1FFF7D3FE0123A1
:104B7000FFF7DEFF10BD10B5002801D0002901D1DC
:104B8000FFF7C8FE0223FFF7D3FF10BDF7B5009370
:104B900008AB1B7805000F0014000193002803D117
:104BA0001E490320FBF7B8FF08221D490AF0A4F8AC
:104BB0000028F5D02B78FF2BF2D0802FF0D8099A5F
:104BC00020210320FFF7A1FF061E25D03F2300214F
:104BD000019A406824BA9A43230A4371230C8371D3
:104BE000009BC2701BBA1A0A047103724272240E2F
:104BF0001A0C1B0EC4718272017341738173C173ED
:104C00008770C3721030040010220AF08DF83A0049
:104C10002900200005F0C6FD3000FEBDD11C0100BA
:104C20009521010010B50A00040008210520FFF7B6
:104C30006CFF00280BD0002342689370D37023BA16
:104C4000190A13715171190C1B0E9171D37110BD9A
:104C5000F7B506000C0015001F00002802D00378ED
:104C6000FF2B03D128490320FBF756FF0029F9D079
:104C7000002FF7D0080000F083FB002D06D12A009A
:104C80003100200000F002FE051E1BD010221F493B
:104C900028000AF031F8002814D09A2321005B0084
:104CA0002D31E25CFF3168460AF035F89A235B004B
:104CB000E15C002906D0089A6846FFF751FF0028FA
:104CC0001DD0089030000899FFF72CFE061E16D064
:104CD0000300200039303A002900FF30FFF7FAFDC9
:104CE0000890031E0AD00A4A0A49022000F08FF9F0
:104CF000002804D0200000F04DFBF7BD08960021ED
:104D0000089801F0CBFDF5E7D11C0100C521010099
:104D1000020200000000FFFFF0B58BB001900D0013
:104D200017000393109E002802D00378FF2B03D1B5
:104D300038490320FBF7F0FE0029F9D0002AF7D00C
:104D4000080000F01DFB0199280000F06BFD0290A7
:104D500000285ADB2B00FC33DC6A06231C4010229F
:104D6000063C2D49380063425C4109F0C5FFE4016F
:104D70001022002817D1294906A809F0CCFF9A274C
:104D800029007F002D31FF31EA5D04A809F0C3FF3F
:104D9000E95D002910D0320004A8FFF7ECFE0028DE
:104DA00033D0060008E0390006A809F0B4FF40231C
:104DB0001C43039B002BE2D1002E07D0029BEB1873
:104DC0002C331A7820231A4200D01C4321003200D1
:104DD0000198FFF703FE041E17D0030028003930A6
:104DE00006AA0021FF30FFF775FD061E0CD0030058
:104DF0000B4A0C49022000F00AF9002805D02800CF
:104E000000F0C8FA0BB0F0BD26000021300001F020
:104E100045FDF4E7D11C0100C52101007521010009
:104E2000020200000000FFFFF0B5050085B00E0093
:104E3000002803D123490320FBF76EFE002900D18F
:104E4000214E280000F09CFA00223100280000F0DA
:104E50001DFD071E17D09A24290064002D312A5DFC
:104E6000FF3102A809F057FF295D0024A1420BD0B1
:104E7000220002A8FFF774FE041E05D100212000C5
:104E800001F00CFD17E004002000FFF706FE019082
:104E9000031EF3D02800393032003900FF30FFF70D
:104EA00019FD041E0CD00300084A0949022000F035
:104EB000AEF80028E2D0280000F06CFA05B0F0BD92
:104EC000019CDBE7D11C01008521010002020000EA
:104ED0000000FFFFF0B589B004000391161E059392
:104EE0000E9D00D1414E200000F04AFA2300FC3311
:104EF000DB6A1B0708D52300FE33188D2900FFF756
:104F000091FE00280BD00500039B002B0ED101223F
:104F10003100200000F0BAFC0390002806D10021E7
:104F2000280001F0BBFC5BE03D00F8E79A27210078
:104F30007F002D31FF31E25D06A809F0ECFEE15D56
:104F4000002906D02A0006A8FFF70AFE0028E6D0AE
:104F5000050022001020FC32D76A384002D09B2383
:104F60005B00E05C0023B90604D59369204A9342B4
:104F700000D91300002294467A0603D52200FC32A1
:104F8000126A9446002205990492914203D12200AC
:104F9000FE32528C04922621FF31615C0A0000210E
:104FA000022A03D180310F4200D040316246019580
:104FB0000092049AFFF780FD071EB0D00300200086
:104FC000393032000399FF30FFF784FC051EABD067
:104FD0000300084A0849022000F019F800289ED072
:104FE000200000F0D7F909B0F0BDC04675210100DE
:104FF00080EE3600020200000000FFFF07B56B469E
:105000000191010068465A8007F0D0F90EBDF0B555
:1050100085B006000F0001921C0001F0F8F9051E92
:105020000AD03900300001F0EBF9691E06002000BB
:1050300001F022FC002E02D1280005B0F0BD337A29
:10504000002B06D0012B11D00021200001F026FCFE
:1050500007E00C23F05E019A2100FFF7CFFF002844
:10506000F2DD300001F0E2F90600E3E7019A02AB5D
:105070005A8019000022F068039406F0D1FFEEE791
:1050800070B50400074D03682A005E691C210123E6
:10509000B04723682A005E691E2101232000B04723
:1050A00070BDC0466720010010B51022034909F009
:1050B00023FE43425841C0B210BDC046C521010085
:1050C00010B508220949040009F016FE0123002842
:1050D00009D022780023FF2A05D10F2063780340EE
:1050E000023B58424341180010BDC04695210100C3
:1050F000F8B5050008000F001400FFF7D5FF0028E1
:1051000013D1002C0BD005264E3500242001281881
:10511000390005F0C9FA002804D02000F8BD2E356A
:105120000226F2E70134A642F0D101204042F5E721
:1051300070B50400456800F01BFF22002B682D327B
:1051400001001E69FF3208232800B04703008633A0
:1051500008D022000123FC32D16A0B43D36200281D
:1051600009DC70BD9A235B00E35C002BF9D0044995
:105170000320FBF7D1FC9A235B00E054F1E7C04623
:10518000D11C0100F0B585B0061E0291039201D03A
:10519000002903D11C490320FBF7BEFC01235B421D
:1051A000019300231C00009323002C33F35C002B9D
:1051B00019D0039A002A08D02022134213D11F3A93
:1051C000A240039B1B781A420DD0350023012E35D7
:1051D0005D190299280005F0C4FA0700402809D992
:1051E000009B9F420CD2012C02D1019805B0F0BD6A
:1051F0000124D9E72800FFF763FF0028F0D0F2E789
:1052000000970194EFE7C046D11C01000178427875
:105210003F2013020B4310B55BBA074C9BB283438C
:105220003A38A34207D00930FF2904D10F23134095
:10523000052B00D1180010BDC0FE000013B580681A
:10524000002911D16B466A461980174B0190538093
:10525000FE303A23C15E684607F088F8002802DC79
:1052600012480AF041FA13BD042919D0072913D0B6
:105270000229F8D103689B689847041EF3D01020D8
:105280000B49205623000B4AFFF7C1FE011EEAD14D
:10529000200001F003FBE6E7C3690133C361E2E7E5
:1052A000836901338361DEE7341200001E200100B0
:1052B0000000FFFF01020000F0B5104C85B00A9E0F
:1052C00067682568B74215D0002D05D1A560E56057
:1052D0000B9D2560002F03D009490320FBF71CFC20
:1052E00066600293074B019400930823FBF7B6FC1A
:1052F0000028F1DD200005B0F0BDC046181A0020DE
:10530000D11C0100A953000010B50C4A002808D098
:1053100003003D33FF33904204D209490320FBF7D9
:10532000FBFB1300074A934202D30023180010BD71
:1053300019680029FAD13D33FF33F4E7181A002029
:10534000D11C0100541B002010B500242000FFF7E1
:10535000DBFF002801D1200010BD03685A1E9341D5
:10536000E418F4E710B504000020FFF7CDFF002893
:1053700005D00300FE333A229B5EA342F5D110BD57
:1053800010B5002805D00368002B02D0083006F0C5
:1053900011FE10BD10B5002805D00368002B02D007
:1053A000083006F00DFE10BDF0B504002600ABB0CD
:1053B00006AD08220021280009F0B6FC984B200019
:1053C0006B80FFF7DDFF974BFE361B886568102169
:1053D00073870AA807F03EF8934BAC606B602B68AC
:1053E00028009B689847011E00DA0EE12800FFF7AD
:1053F00047FE606802AB063301930368019A1B699C
:1054000027211F000223B847022803D08749032021
:10541000FBF782FB3827019BFF371B882000E355F1
:1054200000F0E4FD2000FFF783FE0822002108A819
:1054300009F07AFC00230020002103AA1380013325
:105440005370E25D04900591D01E01970728DDD8C6
:1054500027009A21FC37490007F0E6FE046D049D01
:10546000AB6DAB04F86A1842D0D0635C062BCDD18B
:10547000052A05D00A2A59D0032A06D16C4B01E02F
:10548000A023DB00328D9A42C0D10126FB6A334251
:1054900020D09A2321005B002D31E25CFF3104AB68
:1054A000200000F0E7FD8630B0D0FB6A3342ADD07B
:1054B000019B03A9E05C05F00FFA8630A6D0FB6AD9
:1054C0003342A3D0019B08AAE05C04A905F0EAF9E5
:1054D00086309BD09B2340225B00E2542000FCF7E7
:1054E000F1FE23681B68002B01D0200098472000A4
:1054F0001C220021103009F017FC81272000FFF743
:1055000049FFBF0008AE300006F09EFF7388494A8D
:1055100093426CD056D8484A93425DD023685B6969
:10552000002BEFD0310020009847EBE7404B328D45
:105530009A42AAD96AE7FA6A1A4200D166E7635C1E
:10554000022B02D0082B00D060E7A023328DDB00B5
:105550009A4200D05AE73623FF33E35C002B00D198
:1055600054E7606802AA036803321E691821012308
:10557000B047863000D149E7019BE35C042B84D11E
:10558000606808AA036803211E690823B0478630B3
:1055900000D07AE73AE7FA6A1A4200D136E7635C4C
:1055A000012B00D032E7328D244B9A4200D06CE7B9
:1055B0002CE7FA6A1A4200D028E7635C002B00D17E
:1055C00063E723E7BB421DD01D4A9342A6D12B6857
:1055D0002800DB68984795E7236871685B682000BE
:1055E000984700288EDB236A181820628AE7236810
:1055F0001B6971682000984706A90790300006F0E3
:10560000F5FE7FE72368DB68F3E70E4809F0F2FF59
:1056100000202060708760606860A8602BB0F0BDDB
:1056200005020000440400203D520000D11C01008E
:10563000DC0500000302000002020000FFFF000082
:105640003412000043200100F7B50E000500FFF7FB
:1056500097FE337834890E2B00D1CCE036D8092B55
:1056600000D17AE00DD8072B5CD0082B00D1AAE03E
:10567000686833890268317814697268A047040049
:105680004BE00B2B00D189E00C2BF1D10F2C3ED934
:1056900073682F0000932B0000249E334E37019334
:1056A0003389A34239DD019BBB4236D03800FFF776
:1056B000FBFC002808D110223900009809F02BFBD0
:1056C000009B1034103300931037E9E72B2B31D0B7
:1056D0000FD80F2B00D199E0112BC9D17388022B61
:1056E000C6D1022C13D12B00FE331A8D73681A8099
:1056F00013E03F2B09D0402BBAD1012C07D12B004E
:10570000FC33DB6A72681B0A7DE0012C03D044493C
:105710000320FBF701FA73681C702800FFF73AFEBC
:105720002000FEBD012CF2D19B2252007368AA5CBE
:105730001A70F2E77388012B09D0022B00D097E78B
:10574000042CE4D12A007368A0321A60E5E7042C27
:10575000DDD12A0073681032F7E70F2CD7D92B0060
:1057600000242C331B787768A34207D02900380027
:1057700010222E3109F0CFFA1037103433899C42B1
:10578000CBDA2B002D331B78002BC6D0290010223A
:105790003E31380009F0BFFA1034BEE7002CB6D015
:1057A0002B002800002472682C332E303189A1424E
:1057B000B3DD8342B1D01978002902D011700134D1
:1057C00001320133F2E7072CA1D92A00FC32D26A58
:1057D0007368D20700D44BE79A22290052002D317A
:1057E000AA5CFF31280000F045FC0300040086336A
:1057F00000D13DE791E7012C00D088E72B00FC3376
:10580000DB6A72685B082340137086E7012C00D0C6
:105810007DE72B00FC33DB6A72689B08F3E7C04628
:10582000D11C010070B504000D00002801D0002932
:1058300003D108490320FBF76FF9FFF7A1FD290009
:1058400000222000FFF754FC05002000FFF7A2FD16
:10585000280070BDD11C010070B504000D000028A7
:1058600001D0002903D108490320FBF755F9FFF7C0
:1058700087FD290000222000FFF784FC050020009E
:10588000FFF788FD280070BDD11C0100F0B587B07E
:10589000060002911400002801D0002903D16849B4
:1058A0000320FBF739F90122002104A809F03CFA92
:1058B0003000FFF765FD33002C331B78002B00D040
:1058C00080E001235B42019333002D331B78002BD2
:1058D00000D08BE0019B0024002B6DD1022200211F
:1058E00005A809F021FA0298FFF7EAFB02230393C7
:1058F000002803D10298FFF789FC039000273D00A0
:105900000122AA4004AB1B781A4230D0340028018F
:105910002E3424180299200004F0C6FE00284BD132
:105920002000FFF7CDFB0223002803D12000FFF762
:105930006DFC0300039A9A4200D071E005AAAB5CAB
:105940000433DBB2AB54BB4200D904272B001F2227
:105950002C33F35C1340082B09D105AAAB5C01334F
:10596000DBB2AB541A1CBB4200D23A1CD7B2012D99
:1059700054D12A00002104A809F0D6F905AB1A7801
:10598000BA4204D104AA1278154304AA15705B78B0
:10599000BB4205D104AB1A780223134304AA137047
:1059A00004AA02993000FFF7EDFB0401002801DA98
:1059B000019B1C012E3434193000FFF7EBFC200052
:1059C00007B0F0BD5B0700D07BE7002C07D104AB2C
:1059D0001A780123134304AA1370002373E73000DD
:1059E0002E30FFF76DFB0028F1D16AE75B0700D08E
:1059F00070E7002C0BD104AB1A780223019C1343EF
:105A0000013404AA137063426341019366E73000D6
:105A10003E30FFF755FB0028EDD15BE701256FE72E
:105A2000039A9A4200D891E705AAAB5C0233DBB235
:105A3000AB541A1CBB4200D23A1CD7B286E7C04610
:105A4000D11C010070B5050000242000FFF75CFCAC
:105A5000041E0DD0002229002000FFF749FB00287A
:105A600006DA012229002000FFF742FB0028ECDBC8
:105A7000200070BDF8B5002506002F002C00200086
:105A8000FFF742FC041E01D13800F8BD002E03D1FF
:105A90000B490320FBF740F8002231002000FFF7FC
:105AA00071FB0028EBDB00012E302018310004F0E0
:105AB00058FE0028E3D08542E1D205002700DEE74A
:105AC000D11C0100F7B5050001242F00019100262B
:105AD000FFF756FC4E3764420199380004F0E4FDAC
