:1000000000020020810400005D0400000D040000D7
:1000100000000000000000000000000000000000E0
:10002000000000000000000000000000E1030000EC
:100030000000000000000000B90300006D04000093
:10004000B1000000B1000000B1000000B1000000EC
:100050007D130000B1000000B1000000B1000000FD
:10006000B100000019120000B1000000B100000052
:10007000B1000000B100000023120000B100000038
:10008000B1000000B10000006515000081150000FE
:10009000B1000000B1000000B1000000B10000009C
:1000A000B1000000B1000000B1000000B10000008C
:1000B00010B500F0DBF910BD10B500F0DDFA10BD91
:1000C0007047000070B50C00060000F099FA094B6B
:1000D000094A1D682C19944202D8084A944207D252
:1000E0000C23012533606D4200F092FA280070BDA8
:1000F0001C60F9E70002002000800020DC450020A1
:1001000010B51900100000F0C5FA10BD10B51900A7
:10011000100000F0C9FA10BD132303600120404213
:10012000704713230360012040427047132303608C
:100130000120404270470023022203608A425B4153
:10014000180070470020124B10B51860114B12496F
:100150001B680A685C421C40104B6343104CDB0E6A
:10016000E35C104C9B001B591B68083B93420ED06C
:10017000824204D010790A2801D1013010710A227C
:100180001A710622985E084A0B601080012010BD8B
:10019000BC020020B0020020B802002031B57C076C
:1001A00062B40000C4020020B402002030B503791C
:1001B000092919D9092B13D804004379184A9B003F
:1001C0009D580834002D0DD02D6885609D582C60F9
:1001D000D45001234479134AA34014682343136085
:1001E000017130BD8460F3E7092BF9D942790C4CD9
:1001F00092001359002B04D01D68AB420DD100238F
:1002000013514579AB00E358002BE9D10133AB40E2
:10021000044A14689C432300E1E72A681A60F0E767
:10022000C4020020B002002010B5094B1B681A79E7
:10023000092A02D95B79834206D900F0ECF900283B
:1002400003D00122034B1A6010BD00F0ABF8FBE7AE
:10025000B8020020BC02002070B5002400F0D0F9E4
:10026000084B094A1B88094D1BB29B009C50084A49
:10027000210013682868013B1360FFF797FF2C608B
:1002800000F08CF8B402002004030020B802002023
:10029000C002002003000F48FF22984280414042E4
:1002A0000001C3409A4292415242D200D3400F21F2
:1002B00099428941024348428000C3400321994248
:1002C000894149424900CB4002430A435808104340
:1002D0007047C046FFFF0000D318032293431F4A14
:1002E00010B51C1F2260620703D0083B1C001C4B8A
:1002F00023608022231F52041A601A4A043B1860AC
:10030000043B1A600022043B1A60043B03321A606B
:10031000043B013A1A60043B013A1A60043B19603D
:100320000632043B1A60043B013A1A60043B013A6E
:100330001A60043B013A1A60043B07321A60043B1E
:10034000013A1A60043B013A1A60043B013A1A6010
:100350002000032344385B42036010BD7777777732
:1003600088888888590200000548064A064B0168BB
:10037000914201D1984201D3181A70470430F6E730
:1003800000000020FEE7FEE700020020EFF30880F7
:1003900070470000004870470000002000F034F96A
:1003A00001DFFEE78023034A5B0551680B4353607E
:1003B0007047C04600ED00E0EFF30980EC4685464B
:1003C0004046494652465B46FFB4704601B4684613
:1003D000E54602490968086000F002F8B80200200A
:1003E000FFF7B0FEEE46084800680068854601BC8D
:1003F0008446FFBC8046894692469B46684680F309
:100400000988F54660470000B8020020104B114AE9
:100410005933FF3310496846904203D8984201D9B6
:10042000002102E009468D46012104207246024265
:1004300002D1EFF3088001E0EFF30980F0B4434606
:100440004C4655465E4678B46B4600F04DF8C046C3
:1004500000000020008000200002002010B50249AA
:10046000042000F059FBC0461BB6000010B502493D
:10047000062000F051FBC04682B400007047704770
:1004800070B5FFF7FBFF6A46104B11499A4214D82A
:10049000002310481049114C1A188A420FD300212A
:1004A0000F4B104A93420ED3FFF7E9FF00F018FB01
:1004B0000AF08EF800F06AFB70BD02C3E6E7E5586B
:1004C00004331560E8E702C3ECE7C04600000020F3
:1004D000FEE7FEE700020020B0020020E0C10000BD
:1004E000B0020020DC450020F0B58DB00A92364AFB
:1004F0000B931268354B040003919A4202D03448A2
:100500000AF024F9039B002B37D0002531480AF06C
:100510001DF92E0030480AF019F90A992F480AF0FF
:100520009BF8039B002B23D12D480AF00FF93100D3
:100530002C480AF091F86946234BC91A2A4BC9186E
:1005400003D5494229480AF087F80B9B1E00201C5E
:100550008268C36801698C4641698E46AD46311C8C
:10056000F0C9A046A946B246BB46F0C9416800683A
:1005700001BE1F49052000F0CFFA25002368E76976
:1005800004936368A6690593A36824350693E3681A
:1005900007932369089363690993BB0500D4043D5D
:1005A00014480AF0D3F8079B059A00930499069B18
:1005B00011480AF051F800973300099A08990F483A
:1005C0000AF04AF8A6E7C04600000020FEE7FEE772
:1005D00090B40000A6B400006BB5000070B5000038
:1005E00082B50000B3B50000A8FEFFFFDBB5000038
:1005F00008B60000D5B40000F0B400002DB500002E
:10060000EFF3108072B6704762B6EFF31080704758
:1006100080F310887047EFF30580C0B27047000088
:1006200073B50F4D01AA296803240B0CDBB20191AD
:10063000002B06D15378013C002B02D11478631EA5
:100640009C41FFF7DDFF2B68019A06009A4202D118
:10065000200000F013FC3000FFF7DAFF73BDC04646
:10066000040200200022034B10B51A60FFF7D8FFE8
:10067000FEE7C04604020020E12110B5034B044A06
:100680004902002000F0EEFC10BDC0460802002028
:10069000410E000010B50A000100024800F0DBFB2B
:1006A00010BDC0460802002010B50C000A00010071
:1006B000002000F09DFD200010BD10B5012000F0CD
:1006C0003DFF10BD044B10B519680200002902D18E
:1006D000012000F011FF10BDC803002010B5094A29
:1006E0001368002B08D09C6881688C4207D303D123
:1006F00059684468A14202D90360106010BD1A0015
:100700001B68EEE7D00300200020F0B5214F224EF9
:100710003B68224901333B60214B05001A68186091
:1007200033680A601900002904D03C68A4468C682C
:1007300064451AD9002800D03160002D14D0002162
:1007400029608A4222D01100002B05D050685C68D5
:100750001900A04200D81100080012681B68002A86
:1007600007D103600D4B1960F0BD0D000120096831
:10077000D9E7002B01D10260F4E754685E681D00E0
:10078000B44200D8150005602800E6E7034A13606C
:10079000EAE7C046CC030020D0030020D8030020A5
:1007A000D4030020F8B501232F4F304D3B602B6858
:1007B000002B07D1FFF7A8FFFFF77FFF431CFBD0FB
:1007C000002402E0FFF779FF04002B68002B0BD117
:1007D000FFF773FF1430844222D9FFF795FFFFF72C
:1007E0006CFF8442FBD3EBE75E68FFF766FF844251
:1007F00004D8864202D9361A132EE9D82B685E68CF
:10080000FFF75BFF844201D88642F7D82B681A684D
:1008100018692A6000225A609A60DA689047D4E723
:100820002B68002B0CD05E68FFF747FF143E143096
:100830008642CAD3002330003B60FFF743FFF8BD78
:10084000FFF73BFF0600844202D9FFF75DFFB7E7E1
:100850000300153304D9FFF730FF8642FBD9F4E7D4
:1008600001267642E6E7C046C8030020D8030020F0
:10087000184A10B513681100834212D11B68136027
:10088000002B04D058681438FFF71CFF10BD01205E
:100890004042F9E71A68984201D10A60F6E7190068
:1008A0001300002BF6D10C4A1368002B09D10B4A18
:1008B0001368002BEAD01968984205D01A000B0083
:1008C000F7E71968984201D11160DFE71A000B00C1
:1008D000EBE7C046D8030020D4030020D00300205B
:1008E00010B50023044A0549012000F0AFFD0120A6
:1008F0004042FFF7E7FE10BDA507000040420F0091
:1009000070B5FFF7DAFE084B05001C68FFF7D5FE4F
:100910008542F6D8002223001500040012196B410D
:100920001000190070BDC046CC030020F8B50400CB
:100930000D00FFF7C2FE0023070023602B1A1E2BB9
:100940000CD8FFF7BAFE8542FBD3FFF7B6FE85420F
:10095000FBD8E368206998470020F8BDFFF750FEF8
:1009600063680600002B02D1A368002B02D0200090
:10097000FFF77EFF28001B4A143865601368B842F1
:100980000BD3A3601368A2689A4208D92000FFF72E
:10099000A5FE3000FFF73CFEDEE70133F1E7B84289
:1009A0000FD9114A11001368002B02D05F68BD42B5
:1009B00014D223600C6013689C42EAD1FFF782FED8
:1009C000E7E70A4A1368002B02D059688D4202D229
:1009D00023601460DDE71A001B68F4E719001B6848
:1009E000E2E7C046CC030020D8030020D403002057
:1009F00070B50400FFF704FE63680500002B02D108
:100A0000A368002B02D02000FFF732FF2800FFF779
:100A1000FFFD70BDC36870B504000D00002B0ED043
:100A2000FFF7E6FF1D2D0BD8FFF747FE0600FFF787
:100A300044FE801B8542FAD8E3682069984770BD60
:100A4000FFF73BFE29182000FFF770FFF7E70000D3
:100A5000F7B504000D00161E02D1FFF7DBFFF7BD4E
:100A6000FFF7CEFD63680090002B02D1A368002B36
:100A700002D02000FFF7FCFEFFF71FFE0B4B070024
:100A80001B680193FFF719FE8742F5D8019B2818D0
:100A90006060F318A84207D32000A360FFF71EFE92
:100AA0000098FFF7B5FDDAE70133F5E7CC03002046
:100AB00010B5012806D1084800F0F3FB074800F004
:100AC000F8FB10BD0028FCD1034800F0F2FB0348FE
:100AD00000F0E7FBF5E7C046094400410C44004143
:100AE00010B50021084800F0BCFB0021074800F0C9
:100AF000B8FB0021064800F0B4FB0020FFF7D8FF48
:100B000000F020F910BDC0461344004109440041E3
:100B10000C440041704700000F4B10B51A680C00E0
:100B2000002A13D101321A60032803D171460B4801
:100B300009F092FD21000A4809F08EFD00F0C4F989
:100B4000084809F089FD084809F086FDFFF758FDBF
:100B5000FFF7E0FFFFF786FDDC03002039B6000059
:100B60003DB6000075BB000059B6000010B500F09E
:100B7000BDFE034809F070FD00F0A4FE002010BD8A
:100B800067B6000010B5FFF74BFDFCE71FB5FFF798
:100B900037FD002480210D4B0F221B684900029372
:100BA0000B4B019400930B480C2300F057F8C02125
:100BB000094B07221B68C9000293084B019400935C
:100BC00007480C2300F04AF8FFF7E8FB1C0200205E
:100BD000850B0000E0030020200200206D0B0000C8
:100BE000E004002010B5FFF70BFD094B1B681A79D4
:100BF000092A07D95B79074A9B009958002901D037
:100C000009689950FFF704FDFFF7CCFB10BDC04603
:100C1000B8020020C402002070B50B79092B03D95B
:100C200009490320FFF778FF0A004C79083203686E
:100C3000002B02D18B60026070BD1D00083D6D79F4
:100C4000AC42F7D31800F2E727B6000003001A6899
:100C50009A4201D0181A70470433F8E7F0B587B00C
:100C600005000291039204930F2A30D803220B004F
:100C7000024003D004239B1AC518CB1A0322303B31
:100C800093430593EC18049B1B0717D42D6003E0D6
:100C90001B600433A342FBD3FFF7B2FC0123274AB6
:100CA0000190990056581FB2002E13D00133212B0A
:100CB000F7D10198FFF7ACFC8B2709E02B00E9E79F
:100CC0002000FFF773FA0198FFF7A2FC32E0162725
:100CD0007F422FE08C50059B2A000D99E7800C98ED
:100CE000FFF7FAFA029B0121E3620E9B144AA3620A
:100CF000039B2060637101235B42E36113686562BB
:100D000001331360049B2671A660E660266166616C
:100D1000A66126620B42D3D10B212000FFF746FAD1
:100D2000049B5B07CFD40198FFF772FC6B46988950
:100D3000FFF77AFA380007B0F0BDC0460403002080
:100D4000C002002010B50224314A1378A343137067
:100D500000F04EFE0E2204212E4B2F489A61DA69D4
:100D60000A43DA61426822434260DA698A43DA61FF
:100D70002A4B2B491A6A0A401A628022196A0A43CE
:100D800040211A621A6A8A431A621A6A14431C6260
:100D90001A000823D1681942FCD00121214B197097
:100DA000597849B20029FBDB1F4999601F495960F6
:100DB0001F495980597849B20029FBDB2F219164E2
:100DC0000F39D1641B4A1E39117003221A48017869
:100DD0001142FCD0802252009A60842252025A6052
:100DE0005A7852B2002AFBDB02229A60134AE020B2
:100DF0005A600322C0000100114389B2598059781A
:100E0000C909FCD10132232AF5D100F0F7FB10BD4E
:100E10000010004000040040004000410008004075
:100E2000FFFCFFFF000C004001080000010601006C
:100E30000141000044080040500800400203210026
:100E400070B5040000F0C7FB05002000103000F072
:100E5000A9FD280070BD70B504000D001600320019
:100E60002900200000F0A3FB002800D070BD200066
:100E70000121103000F066FDF1E7000010B5104BC5
:100E8000032806D809F0B8F90F02090C02210D4A0F
:100E9000517004211A698A4308E00A4A0121F7E7E0
:100EA000084A0021F4E7042219690A431A61FFF78E
:100EB000A7FBBFF34F8F30BFFFF7AAFB10BDC046A3
:100EC00000ED00E000040040F0B58DB002222D4995
:100ED0000BA809F0B0FB2C4A2C492D4809F0BCFBAB
:100EE000FFF742FA0400FFF755FA0500FFF74EFA44
:100EF00080212B00009022008900264809F0ACFBDD
:100F0000E54380230027ED179B0025400793224BE4
:100F1000FB185C68002C26D02379E66A9A000893B7
:100F20001E4B606AD3580993079B9B190793FFF7E1
:100F30008DFE0623E15E2368361A0593636A0396E5
:100F40000493E36A089A029363791548019309238D
:100F500093429B410BAA5B42D3180093A26A099B60
:100F6000AD1909F079FB0437802FD0D10D49079BCB
:100F70000295019300910B000B4A0C4809F06CFBA1
:100F80000DB0F0BDADB60000AFB60000B5B60000C4
:100F9000BAB6000002B7000004030020ACB700009E
:100FA0004CB7000088B700008AB700008EB7000079
:100FB0001423434310B50D4A9B581A7E52070ED591
:100FC000198D0B4BC0001A18C9B2C3585068984706
:100FD000084B1B68002B01D0FFF7E4F910BD1A7E07
:100FE000D209F5D080221A76F2E7C04640B8000058
:100FF000E00A0020BC0200200D4A0023904214D0D9
:101000000C4A0133904210D00B4A013390420CD06D
:101010000A4A0133904208D0094A0133904204D071
:10102000084A0133904200D0063B18007047C04682
:1010300000080042000C0042001000420014004270
:1010400000180042001C004210B5FFF7D5FF042332
:10105000C0B28340024A116A0B43136210BDC046FE
:1010600000040040F0B587B0050004910392059399
:10107000012800D9ACE014234343574A02219C586D
:10108000D3185A681F7B13002068019288432060A0
:10109000013306D0100000F0E4F83900019800F0A8
:1010A000C5F814226A434C4B00219B189E683000FF
:1010B00000F0D7F8300000F0F4F83900300000F00C
:1010C000B5F82000FFF7C0FF01232360E369DB07C9
:1010D000FCD42000FFF790FFC3B2029314238022B8
:1010E0006B433D49D201CB181B691A43029B143351
:1010F0001A433A4B92B25A805A7852B2002AFBDB1A
:101100001423C022C0206B43CB18997B92020904A0
:1011100011405A7B8003120502401143304ADE7BA6
:101120000A432260F30703D5802322681343236018
:1011300004992C4809F07EF80A21070009F000F90B
:1011400007230B40A1895B03C904C90C1943A18182
:1011500038000A2109F06EF8A389C004C20C580BAC
:10116000802340035B021043A0816360039B002B3C
:1011700024D0019B013321D01B4B039AED00029830
:10118000EA505D19059B09306B60C2B2030605D4B5
:101190001F231A401E3B9340144A13608023626849
:1011A0009B02134363600423A27D1343A375B3071B
:1011B00004D5802362689B0013436360E0694007A5
:1011C000C00FFBD1022322681343236007B0F0BD98
:1011D00001204042FAE7C04640B80000000C004041
:1011E0000420004080C3C901E00A002000E100E0C3
:1011F00014235843074B8A18C358914203D11A7ECF
:101200009207FCD57047187EC007FCD508780131DD
:101210001885F2E740B8000010B50020FFF7C8FEBF
:1012200010BD10B50120FFF7C3FE10BD1F22030043
:1012300070B50125934302409C18403426782A411A
:101240002E4326700F2428408000844081409B1844
:1012500030331A78A2431A701A781143C9B2197040
:1012600070BD1F23020018409A431E3B10B58340F7
:10127000072913D88C070AD55360062410180C4090
:1012800040300470072904D10020936110BD9360A1
:10129000F3E700200629F9D15361F7E70120404226
:1012A000F4E71F23020018409A431E3B83409361DA
:1012B00070471F23020018409A431E3B834053612E
:1012C0007047000070B51500C2050600920F012A94
:1012D00043DC1F20224C52013040A218145620003B
:1012E000621C39D01F4AE0008350049B12185360DF
:1012F0003000FFF7B6FF00213000FFF797FF4023D3
:10130000194A91690B439361184B194A5A805A78CC
:10131000D209FCD1174AE3109B009B1807220F202B
:101320002240920090409540102299698143996132
:1013300099690D439D61104B1A600F3AA2400D4B05
:101340001A61DA6059690A435A6102221A705A789E
:1013500052B2002AFBDB002070BD01204042FBE7B7
:1013600068B80000F00A002000040040000C0040B3
:10137000054200000018004000E100E070B50024C4
:1013800001252A00A2400A4B19690A4206D01A61B7
:10139000084AE3009B181A68586890470134102CDB
:1013A000EFD1054B1B68002B01D0FEF7FBFF70BD92
:1013B00000180040F00A0020BC020020142358430B
:1013C00030B50A4D2B185C8A4359200703D50631E6
:1013D0008900CA5030BD600703D5D2B259180A76C9
:1013E000F8E70C3192B24900CA52F3E7A8B80000FE
:1013F00014234343134A70B59D581023AE7B040059
:10140000F6B2AE731E420CD06A7BD20609D52B739E
:101410000D4BC100CA58002A03D05B185868002140
:10142000904720231E420CD06A7B920609D52B736D
:10143000054BE400E258002A03D01C190121606822
:10144000904770BDA8B80000700B0020F0B50128CF
:1014500045D8142402274443224D61592C190E8883
:10146000BE430E80A789E689A46837438026F6012B
:101470003E431D4F7E801D4F3E6A34433C62012433
:101480000E8834430C800C88E407FCD414244443B5
:101490002C19668A248A26438024A40134430C80B4
:1014A000CC7B64B2002CFBDB3B240C73104CC600DD
:1014B0003251A419636002230A8813430B8014235A
:1014C000584304232D180020EB56834206DB1F22CD
:1014D00013401E3A9A401300064A1360F0BD0120E3
:1014E0004042FBE7A8B80000000C004000040040A8
:1014F000700B002000E100E070B50C1E04D0012943
:101500000FD0012464420AE0142343430A49102601
:101510005D5821000124AE73FFF750FF6E73200069
:1015200070BD14232026434303495D582100AE7348
:10153000FFF744FF6E73F2E7A8B800001423584386
:10154000064BC35800201A88920706D5044A5A80D1
:10155000DA7B52B2002AFBDB18697047A8B800009A
:101560001080FFFF10B50020FFF742FF034B1B6800
:10157000002B01D0FEF716FF10BDC046BC020020B4
:1015800010B50120FFF734FF034B1B68002B01D07F
:10159000FEF708FF10BDC046BC020020836801684A
:1015A0005A1C82604268013A1340C85C7047F8B523
:1015B000070015000C001600002E03D0BA68FB6867
:1015C0009A4201D1A81BF8BD3800FFF7E7FF013EA2
:1015D00020700134F0E7C36830B5426884681B1B93
:1015E000934208D0C36804685D1CC5600020013ABE
:1015F0001340E15430BD01204042FBE710B500200C
:1016000006F0A2FB002006F063FC012006F060FC5F
:1016100010BD10B50120FFF791FF10BD10B50021DE
:101620000948FFF71EFE0848FFF743FE074B08492D
:101630000848CB8200231A0005F03EFD002802DA9C
:10164000054809F009F810BD12440041E903000003
:1016500024020020800B002037BA000030B587B08C
:1016600004001222002101A808F0EEFF04230093D9
:101670006B46124D1249102201A8DD8208F0DBFFF3
:101680006A4602235371423325602371FFF7C1FF7D
:101690006B46A060282221000A4805F0F5FD051ED2
:1016A00006DA0100084808F0D7FF280007B030BD6F
:1016B000A268064B00251A60F7E7C046B822000072
:1016C000B8BB0000800B0020D0B800001C0C00202C
:1016D00010B588B002AB00930123010004005B4207
:1016E0002822084805F05EFD011E06DBFFF791FF8A
:1016F000054B1860200008B010BD044808F0ACFF8E
:101700000024F7E7800B0020200C002083BA0000A3
:1017100010B5034B1A68034B5A60FFF79FFF10BDCB
:10172000200C0020240C002010B5FFF797FF024B7F
:101730001A68024B9A6010BD1C0C0020240C00207B
:1017400010B5034B1A68034B1A61FFF787FF10BDF2
:10175000200C0020240C0020064B10B55A680261B2
:101760009A681B69426103228361431DDA77FFF7A0
:1017700075FF10BD240C002010B50400044808F0CB
:101780006BFF00232000E360FFF768FF10BDC04639
:1017900016BA000013B50400254808F05DFFFFF7F6
:1017A00038FF0100234808F057FFE3682000019349
:1017B000FFF754FF0100204808F04EFFFFF729FF14
:1017C000019B98420CD91D4808F046FF1C4808F0C0
:1017D00043FF01235B42E3602000FFF73FFF13BD9F
:1017E00000232000E360FFF739FFFFF712FF019AA3
:1017F0000100144808F030FFFFF70BFF019B9842EF
:10180000FAD31148FFF74DFD0021104806F0FEFD08
:101810000D48FFF74EFDFFF7FCFE0D4BC018019081
:101820000C4808F019FF01990B4808F015FFD6E79E
:10183000F9B8000006B900001EB900003AB900006E
:1018400072B9000083B9000012440041409C0000BE
:10185000C063FFFFD5B90000F4B9000010B502481D
:1018600008F0FAFE10BDC0461FBA000010B5030014
:1018700000794138062821D808F0BEFC04080C1075
:1018800014181C001800FFF785FF10BD1800FFF7A3
:1018900073FFFAE71800FFF73BFFF6E71800FFF7C2
:1018A000DDFEF2E71800FFF73FFFEEE71800FFF755
:1018B00047FFEAE71800FFF74FFFE6E7FFF7CEFF25
:1018C000E3E7000010B58AB0FFF7A8FE6C462000E1
:1018D000FFF7FEFE041E02D0FFF7C8FFF7E702483D
:1018E00008F0BAFEF3E7C04650BA000010B506F0A3
:1018F0009FF9FEF7F5FF03F08BFC03F047FE03F0C2
:101900006BFE00F04FFB05F0ABFE00F035FC00F085
:1019100001F810BD13B5074C0749200006F0ACFDD7
:1019200080210094054B0222C900054803F0FAFA11
:1019300013BDC0463810002094BA0000ACBA0000B5
:10194000380C002070B504000D00FEF759FE236826
:101950000600002B06D1013B2360FEF759FE01254E
:10196000280070BD002D18D00D4B02211D682800E5
:10197000FEF71CFC236801330AD12B0008332360D7
:101980000023AB603000FEF743FEFEF70BFDE6E7F9
:1019900029002000FFF740F9F4E7FEF739FEDFE702
:1019A000B802002070B50500FEF72AFE2C6806007C
:1019B000002C03D13000FEF72BFE70BD631C02D15A
:1019C00000232B60F6E72368083C2B600B212000E6
:1019D000FEF7ECFB2B68002B01D1013B2B606479F7
:1019E0003000FEF715FE2000FEF71EFCE5E70000C4
:1019F000194B1A4AF0B59A601A6A1949C025114064
:101A00008022D2030A4380211A62DA69C9051202D0
:101A1000120A0A43DA61032200219446FF27AD002F
:101A200064463E000C40E400A6408A080D4892003F
:101A3000121850590131B0434026A640304350514E
:101A40001C29EDD1102219690A431A6180225969B3
:101A500092000A435A61F0BD00ED00E00000000072
:101A6000FFFF00FF00E100E010B5002103F0D6FC0D
:101A700010BD70B51E00CBB2002115000200080099
:101A800003F0F6F8041E04D12800FFF7EDFF200054
:101A900070BD43681E710560F9E7000010B50B6862
:101AA0000C00002803D112490330FFF735F802007B
:101AB000B032128849684A800022002B08D19C303D
:101AC0000388934208D27A21200003F0A7FC10BDBE
:101AD00099681B685218F0E72300064A064901205E
:101AE00002F057F90028F2D12000FFF7BDFFEEE722
:101AF00027B60000020200000000FFFFF7B50D004E
:101B00004C68096807000A000023002A46D15BBA26
:101B10009BB223711B0A6371A379FF2B03D10029A8
:101B200040D13B23A371E379002B06D14033002F32
:101B300002D03B00AE331B78E3712600083610223A
:101B40002749300008F068FD019000280FD12300DC
:101B50001833244910221800009308F05DFD011E7F
:101B60002BD11022300008F06FFD0123E3752C000B
:101B70001023E356022B02D12068002829D1290026
:101B8000200003F033FA0123002805DA821C03D079
:101B90002800FFF769FF00231800FEBD9068126857
:101BA0001B18B2E70B7C023BDBB2022BB9D80E4A02
:101BB000D35CA371FF2BB6D1B3E70099019A38002B
:101BC00002F052FD011ED2D01022300008F033FD89
:101BD000CDE703F053FC0028DAD020600400C7E70B
:101BE00018BC0000F8BB0000B6BA0000F0B5A3B006
:101BF00007AC10220021200008F026FDB64B08217A
:101C00006360B64B12A81B88A38107F051FD210029
:101C1000022003F0A3F9B24B02AAD3818125AD00C3
:101C200003AC200007F03EFD6188AE4B99421BD803
:101C3000AD4B994222D2AD4B994200D1E9E009D88F
:101C4000AB4B9942ECD16568002D20D1A949032006
:101C5000FEF762FFA942E3D8862305A95B42200074
:101C6000069307F0F1FCD9E7A34B99420AD8A34B9E
:101C7000994203D2A24BCB18042BD1D8606800F054
:101C8000ABFECBE79F4BCB18012BC9D8F6E7012160
:101C90002800494203F0BEF90027B84205D0436846
:101CA0000220185E02F00CFA07006B68002B07D0C8
:101CB000AA68272A04D90F221B789343602B03D0EC
:101CC0002800FFF7D1FEA9E7280003F0D7FB041E88
:101CD000F6D00222282103F0CFFA00232374984281
:101CE00001D12000EDE746687421F379002B00D183
:101CF00085E0717933790902194349BA89B2B57916
:101D0000002901D13B2DECD184426AD0A368200088
:101D10008B4266D903F016FB3300183310227A4940
:101D20001800019308F078FC002819D008227749A0
:101D3000019808F071FC002807D0337EFF2B06D1F4
:101D40000F22737E1340022B01D1002F5BD101982B
:101D500002F068FD070078427841C0B20028C0D187
:101D60000223292D07D001333A2D04D02B00113B3B
:101D70005A4253419B0023742900022003F01FF9AB
:101D8000002802DC00263A2D04D10121200003F0B6
:101D900033FB0126102023002056554A4E4901F0FE
:101DA000F8FF002802D12000FFF75EFE002E10D0C1
:101DB0003A2D03D10121200003F01EFB23004C4AE1
:101DC0002900022001F0E5FF002802D12000FFF7E2
:101DD0004BFE3A2D00D021E72100380007F082FDAC
:101DE0001CE7002382689B1810228256022A02D028
:101DF00000680028F6D1283B8B428DD216212000A6
:101E000003F00CFB0AE7019802F00CFD4342584135
:101E1000A3E710236668F35601331ED17468002CC3
:101E200000D113E70223E05E02F04AF9050030001A
:101E3000247903F023FB002801D1300041E73F2340
:101E400001001C40019403F0EEF806001023F35645
:101E5000022B06D016213000D2E7002301931D008B
:101E6000F4E7706810221830294908F0D5FB0028E3
:101E7000F0D0300003F002FB041EDED04668337E53
:101E8000FF2B47D1002D11D102F00CF9002800D111
:101E900027E7280002F0E8F8002122000500019B56
:101EA0000800FFF7E6FD041E00D1B7E62100280078
:101EB000FFF724FE002800D1B0E640230021019A5C
:101EC000080013432200FFF7D4FD011E00D1A5E650
:101ED0002800FFF7E3FDA1E60000FFFFB4020020A9
:101EE00005020000C34F0000C04F000002020000C6
:101EF0000102000027B60000CF4F0000CB4F0000CA
:101F00003BB0FFFF2FB0FFFFF8BB0000E8BB0000B5
:101F100018BC00001836300002F084FC10220700C4
:101F20001D49300008F078FB002801D0002F16D0A2
:101F300021003800FFF7E2FD002800D1D1E62000A3
:101F400003F087F8002800D0CBE62300134A144999
:101F5000023001F01EFF002800D05FE6C1E60BAFA3
:101F60003B0022002900300000F072F9002800DA5E
:101F700054E6388BC005C00E02F0A2F8051E00D151
:101F800064E62100FFF7BAFD002800D146E6B97EDD
:101F9000019B22000FA896E7F8BB00000102000099
:101FA0000000FFFF1FB50B4C0022A35E002B0CD1DD
:101FB0008021094A0193094B0292009304220823CD
:101FC000C9000748FEF74AFE20800023E05E04B007
:101FD00010BDC0467C140020B9BA0000ED1B000003
:101FE0007C10002010B5022103F014F8002810D056
:101FF0004368002B03D108490320FEF78DFD82685A
:10200000272AF8D90F211A788A43602AF3D11800B9
:1020100010BD0300FBE7C04627B60000F7B50C4D26
:1020200001930C4B0F0000901100280014000026B3
:102030009E5F07F0F7FB00232360019B67816360CD
:10204000009B26812800E360210007F0BFFBF7BD5D
:10205000981600207C14002010B5082209490400BD
:1020600008F0DAFA0123002809D022780023FF2A99
:1020700005D10F2063780340023B584243411800CA
:1020800010BDC046E8BB0000F0B5036885B0040091
:10209000002B17D01A0036321278120712D5010021
:1020A000102268469D8E1F2608F0C5FA200000F019
:1020B00095FF002440272D113540200001F0FAF84B
:1020C000041E01D105B0F0BD20680028F5D0838E34
:1020D0001B1133409D42F0D10430694605F052FC9B
:1020E0000028EAD02300002234331A70236820002D
:1020F00036331A78BA431A7001F0B4F8DDE7F8B550
:1021000007000C0016001D00002912D00B00AF3391
:102110001B78092B0DD1010010222800B03408F0E3
:102120008AFA23881B012B830023AB760125280024
:10213000F8BD069B002B04D02900180000F0E4FE37
:10214000F4E72A002100380001F0C2F9051EEED1A3
:102150000699002C02D0B0340023E15E0222380040
:1021600000F058FE011E03D1300003F057F9DEE7FE
:10217000002EDCD07621F7E770B50A4C0121200053
:10218000FFF7E0FB084DA969002905D00E6828007B
:1021900007F048FB3100F7E700F0C2FD2000FFF731
:1021A00001FC70BDB4160020981600207FB5041EF7
:1021B00003D123490320FEF7AFFC01F08FFFFA2281
:1021C0002300920094331A60012200219A71043393
:1021D000197017331B78042B12D16B469E1C0823F1
:1021E00001AD0B322800338008F02EFA05232B7046
:1021F000033B2B8123686E601B69290020009847F0
:102200002300002599331D700E49200002F022FBA7
:10221000A84203DA200001F06BFF7FBD40222000BE
:10222000094901F0F1FAFA212800890005F00AFDB8
:1022300022000300643205492000FFF7EFFEE9E7C2
:1022400027B60000C8BB0000E8BB0000C34F000079
:10225000F0B50C008FB0060008000292039301F065
:102260003DFF01215748FFF76DFB211E03D02300DE
:10227000B0330021595E300000F07AFD071E37D0E0
:10228000858EED05ED0E3000FFF7E6FE00280AD141
:10229000002D08D0200001F02BFF28B201F010FF24
:1022A000040001F01BFF002C00D182E00097039B8B
:1022B000029A21003000FFF722FF0025002865D197
:1022C000762574E02B00042234331B78134210D09F
:1022D000EB8E033A13420CD0291D300005F0AFFB02
:1022E0002B0035331B78834203D82B689D8EC8E7BB
:1022F0000500280000F0DEFF051EE3D13000FFF7E7
:10230000ABFE0028BFD105AF3A000299300001F0C2
:1023100019F8051E43DB10222B4909A808F07CF9A7
:10232000002806D1002D3AD11022310009A808F06A
:1023300082F9002C10D02600B0360023F25E05ABE7
:102340005B8C9A4202D0200001F0D2FE0023F25EA4
:1023500005AB5B8C9A4209D02223F85E01F0B0FEF7
:10236000040001F0BBFE00218C4203D02300B033F7
:102370000021595E09A800F0FBFC039B0090029A23
:10238000210009A8FFF7BBFE002899D00D48FFF7F0
:1023900009FB200001F0ACFE28000FB0F0BD029B4D
:1023A000002B03D07221180003F038F872256D421B
:1023B000ECE7029B002B00D182E77621029803F024
:1023C0002DF87DE7B416002018BC0000F0B58BB0E6
:1023D0000700039102921D00002803D1BF4903208A
:1023E000FEF79AFB01F07AFE0121BD48FFF7AAFA39
:1023F000029B1B78872B00D17EE1882B00D137E22E
:10240000862B00D09AE1039E08363000FFF724FEA9
:10241000002800D192E1039BDB79FF2B00D08DE1F6
:10242000029B5B78002B00D088E10F2D00D885E15E
:10243000029C2B0010342200103B06930593059B51
:10244000002B5AD1029A029BD5799B792D021D430C
:102450003B00B0330021595E002D5CD0300000F00D
:1024600091FD6DBAADB2061E00D167E1FA239B0063
:102470006B43021D9B490493FFF7D0FD029B1B7920
:10248000002B02D03A00AE321370029A029B527BAC
:102490001B7B12021A43029B9B7B1B041A43029B69
:1024A000DB7B1B06134303D03A001BBA9432136044
:1024B000002E0FD010223B7C934303D03800123003
:1024C00001F04AF810227B7C934303D0380022307D
:1024D00001F042F8069B002B2DD13C006434210012
:1024E000814807F09FF9049B22009D0803233800D0
:1024F0006B437E49FFF792FD20E1059B9D4200D290
:102500001CE15378002B00D118E10599DB00C91AB2
:102510000591D21893E7300000F094FD061E06D016
:10252000FFF7B2FD01235B420493059EA6E701235A
:102530005B420493A2E72378032B36D008D8012B03
:1025400013D06378069ADB00D21A0692E418C1E72A
:10255000052B11D0222BF4D12100029801F032F981
:10256000049B8342EDD90490EBE72300029A039980
:10257000380000F029FBE4E76378012BE1D1029BEE
:102580001B78862BDDD16279237912021A43A37955
:102590001B041A43E3791B061343554A1BBA9342A3
:1025A000CFD93A009C321380CBE7637926791B029E
:1025B0003343A679257A36043343E67936061E433B
:1025C000637A36BA1B022B43A57A2D042B43E57A96
:1025D0002D061D4363782DBA042BB2D1029B1B78C4
:1025E000862BAED12300103318000593FFF734FD7E
:1025F0000028A6D1AE42A4D34022E378134204D0EF
:10260000A2780599380001F0FFF8E3787F2B98D97C
:10261000A37807936279237912021A43A3791B04E2
:102620001A43E3791B0613431DD11D00042614E051
:102630002B0034331B7833420FD02B0035331B78FB
:10264000079A9A4209D1281D059905F0F8F9079BC8
:10265000834202D8280000F0BDFE280000F02AFEC8
:10266000051EE5D16DE7731C05D0224B9E422FD885
:10267000FA239B005E436B1C05D01E4B9D422AD85B
:10268000FA239B005D433B00B0330020185E079A9D
:1026900000953300059900F0A7FE002800D150E70F
:1026A000E27853B2002B03DA0123C18E0B43C386B9
:1026B00040231A4203D00222C38E1343C386AE4284
:1026C00000D92E00049BB34200D83AE7049638E7BD
:1026D00002267642CFE702256D42D4E727B60000F6
:1026E000B4160020CD4F000098160020C34F000004
:1026F000FF04000037894100039BDB79FF2B1DD1CC
:10270000029B5B78002B19D1172D17D9029B1B7ADE
:10271000FF2B13D0039B102208338F49180004931A
:1027200007F07AFF002811D0029B38000833190007
:10273000069301F07FFF0790002810DA8748FFF723
:1027400031F9380001F0D4FC0BB0F0BD03980D2234
:102750008349183007F060FF0028E5D0EEE72C0031
:10276000029B183C18331A0026000593002E0ED148
:1027700010227949049807F04FFF002810D1330048
:102780000096049A3900069801F02AFAD6E7B54275
:10279000D4D35378002BD1D0DB00F61AD218E5E75A
:1027A0003B00A0331B68DB0707D43B00B03300219C
:1027B000595E0322049800F02DFB002C18D1079BD2
:1027C000FB181B7C9B064BD53B00B03302930021CA
:1027D000595E069800F0CCFA051E04D0030036338B
:1027E0001B78DB0716D40021080002F017FEA5E7CE
:1027F000059B1B78012B05D1059B029A0399380094
:1028000000F0E2F9059B059A5B78DB00E41AD31827
:102810000593D2E7039B1B7EFF2B14D13E003900AA
:10282000AC36A431327808A807F005FF31780029CA
:1028300009D0220008A801F063F94021061E04D146
:1028400021002000D1E7602126003200069801F027
:10285000B3F8041E5ED121003000C6E73100F0E776
:10286000039B1B7E0094FF3B5A425341DBB288E737
:10287000039BDB79FF2B00D060E7029B5B78002B8A
:1028800000D05BE7172D00D858E7029B1B7AFF2B7F
:1028900000D153E7039B1B7EFF2B04D1029B1B79C6
:1028A0005B0600D54AE72E00029C183E1834210032
:1028B0003200002A23D13B000298B0330021595E38
:1028C000083000F055FA051E00D137E70300363313
:1028D0001B78DB0700D431E7002E00D12EE72378E8
:1028E000212B07D1019500942300029A0399380007
:1028F00000F0AAFE6378DB00F61AE418ECE79542D4
:1029000000D21BE74B78002B00D117E7DB00D21A6F
:10291000C918CEE7049A002107F0D0F8061E9DD012
:10292000FF234268D37100231A001900180002F037
:102930009FF9041E8FD0FA21029B42681B888900F0
:1029400053800660002005F07DF92A000300243240
:1029500004492000CEE5C04618BC0000B416002093
:1029600008BC0000C24F000070B505002E0001F049
:10297000B5FB98361449280000F092FD3378022BFD
:102980001FD9FA24033B24019C40104BE418104B40
:102990009C4200D91C00A0420FD90E49280001F02A
:1029A0009BF93378092B01D8013333702A002300B7
:1029B000643205492800FFF731FB280001F098FB3D
:1029C00070BD024CE7E7C046C34F0000102700006F
:1029D00060EA0000D8BB0000F7B50D00040001213B
:1029E0005048FEF7AFFF504BE8180D2814D807F0F9
:1029F00003FC071713131313131313131B901394D0
:102A000023004A4A4A49022001F0C3F9002803D1B1
:102A10000921200002F002FD4248FEF7C3FFF7BD86
:102A20002000FFF7A1FFF7E72368988E1F2300110E
:102A3000184001F045FB0500FDF762FFFA22002374
:102A4000920007F08FFC0600280001F047FBA36B03
:102A50009E4230D321002F00143136481237261DF4
:102A600006F0E0FE3100380004F0E9FF23003533C2
:102A700001931B78834203D83900280001F042FFFC
:102A80002F0022373100380004F0D9FF019B1B785A
:102A9000834203D83900280001F034FF22000421CA
:102AA0003432137820008B43137000F0DBFB2800D6
:102AB00001F01EFBB0E7E36B9E42F8D32800271D10
:102AC0003900123004F0BBFF2300353301931B782B
:102AD000834205D81F232A7C9A43173B13432B7448
:102AE00028003900223004F0AAFF019B1B788342A2
:102AF00006D81F226B7C93431A00082313436B7480
:102B00002200A36B14329B1B0B492000FFF786FAAF
:102B1000CDE72000FFF7B8FA7EE7200000F01CFDAB
:102B20007AE7C046B41600203EB0FFFF0202000064
:102B30000000FFFF98160020CC4F0000F0B585B0D4
:102B40000C00070015001E0000F09CFA002C03D1B9
:102B50001C490320FDF7E0FF002D29D02300006869
:102B6000B03300229A5E838EDB05DB0E9A421FD1C2
:102B70000430310004F006FF002819D02300A033F0
:102B80001B68DB0712D523002100AC331A78A4316F
:102B900002AB200001F0FEFF082807D1002302AAA3
:102BA0000F21180004F054FA002802D105B0F0BD3E
:102BB0000020009033002A002100380000F0ACFF14
:102BC000F4E7C04627B60000F7B5050017000193EB
:102BD000002803D123490320FDF79EFF030008319D
:102BE0000E00B03300930021595E300000F0C0F8B1
:102BF0002B000122A0331B6804001342EAD0AF353A
:102C00002878019904F0D6FF002823DB002C05D09A
:102C10002300012236331B7813420FD1009B03227D
:102C20000021595E300000F0F5F8041E12D03B7808
:102C3000872B03D10822838E934383862300363368
:102C40001B78DB0706D53B78862B04D1A28E7E3B12
:102C50001343A386F7BD872BFCD00822A38E934392
:102C6000F7E7C04627B6000010B508300023C15E64
:102C700006F088FC10BD000070B5051E03D10120D0
:102C80000123184070BD0C1D10220549200007F0DB
:102C9000C3FC0028F3D02100280004F073FEEFE706
:102CA00018BC00000300002110B536331B788B429E
:102CB00003D1382207F0C8FC0121080010BD000034
:102CC00070B5060010000D001400FFF7EBFF002E9A
:102CD00004D0201D1022310007F0ADFC1F2D03D9B8
:102CE00005490320FDF718FFA18E044B2D01194063
:102CF0002943A18670BDC04627B600000FFEFFFF26
:102D0000064A1368181E04D01868834202D10023B3
:102D10001360704702681A60FBE7C04694160020F3
:102D200010B50249024806F0A3FD10BD692C000051
:102D30009816002070B50D4C0500A38E0E00DB0523
:102D4000DB0E99420BD12100FFF796FF002806D039
:102D5000280022003100FFF7B3FF200070BD2300E0
:102D600036331B78002BF3D00020F7E7B81600208D
:102D700010B5021E03D10D490320FDF7CDFE0C4C0A
:102D8000230036331B78002B0DD0A38EDB05DB0E22
:102D900003D0002901D0994205D1201D110004F073
:102DA000F1FD002800D10024200010BD27B600004E
:102DB000B81600200200012110B536321378040045
:102DC0008B43010013702431104806F02BFD10498D
:102DD0000A68002A05D010681300844205D1FFF765
:102DE0008FFF2000FFF75EFF10BD1B68186884424C
:102DF00002D09A42F9D1F4E7002BF2D022681A608F
:102E00000A689442EDD10B60EBE7C04698160020AB
:102E100094160020F0B585B002900391002803D1EC
:102E200037490320FDF778FE072422401300043BB6
:102E30000192022BF4D903990298FFF77BFF002837
:102E400040D1FFF75DFF0500061E38D004002700C3
:102E50000122002636373B789343B34213D1C02179
:102E6000A38EC9000B420ED12000FFF7A3FF220062
:102E700003990298FFF724FF01222600A38E0199EF
:102E80000B43A3863A701F4F3B68002B10D01B6882
:102E900023603B681C603C60002E10D1FFF730FFC0
:102EA00004008542D3D13B68002B03D12D6005E09F
:102EB0002460F0E71B682B603B681D603D603000BC
:102EC00005B0F0BD0100012336310D781D4206D159
:102ED000828E2B43A243019C144384860B700368AB
:102EE0000600002BEBD1074B1A68002A06D01268A7
:102EF00002601A68106018600600E0E70060FAE7F8
:102F000027B600009416002070B505000C000028BC
:102F100001D0002903D119490320FDF7FDFD011D52
:102F20001022200007F087FBAB8E2383A88EC005FC
:102F3000C00E01F0C5F8082206001149200007F074
:102F40006BFB002807D02378FF2BE4D10F22637896
:102F50001340022BDFD1002EDDD0330029002200E8
:102F6000A0331B680C311032DB07D4D5AF36307874
:102F700004F006FE002800DBA07670BD27B6000036
:102F8000E8BB0000F8B5144C060025680F00002DC2
:102F90001BD0AB8EDB05DB0E99421BD1291D04F043
:102FA000F1FC002816D0082336352A7813432B70FD
:102FB0002000F8BD39003000FFF782FE08222368A8
:102FC000363319780A431A70F2E7FFF7B3FE021E90
:102FD0002060EFD10020ECE78014002010B5040041
:102FE000006800280CD002000821363213788B4389
:102FF0001370FFF757FE14220021200007F024FB76
:10300000034B1A68A24201D100221A6010BDC046CB
:10301000F01600200A4A1300002801D003001433E0
:103020001432934202D30023180070471968002914
:1030300003D0363109780029F6D11433F1E7C046C0
:103040008014002070B50D4D2C68002C13D0A38E79
:103050000026DB05DB0E99420ED1211D04F092FC07
:10306000B04209D0363423782E001B0704D404491B
:103070000320FDF751FD2600300070BD80140020B4
:1030800027B6000070B5144D2C68002C06D007221E
:1030900023689B8E1340013B012B11D8002007268B
:1030A000FFF7B8FF00280DD12000FFF7B3FF002C79
:1030B00001D0002802D10020FFF7ACFF28602C6867
:1030C000200070BD03689B8E3340013B012BE7D984
:1030D00028600400F4E7C046F016002070B5050033
:1030E0000C00002804D00368002B01D0002903D174
:1030F00013490320FDF710FD10220021200007F0E6
:10310000A3FA0023621CD3770E4A1268AA4208D1A0
:1031100007222B689B8E1A400123013A93429B4160
:103120005B422000A21CD3772B681022191D10309F
:1031300007F081FA2B689B8EDB05DB0E638470BD84
:1031400027B60000F0160020F0B587B00500059105
:1031500002920393002A03D13F490320FDF7DCFCD0
:1031600010223E49029807F057FA0028F4D0039B3A
:10317000013B7F2BF0D800240194019B9B01049319
:10318000049A374B9F181300354A3533D35C039AA2
:103190003E689A422CD1002E5AD01F22B38E1B11AA
:1031A0001340059A9A4223D131002800FFF764FDAD
:1031B00000281DD02A4B0299181D049BC01804F04A
:1031C0003EFC039B834213D8002D04D0301D1022F7
:1031D000290007F030FA019B3C009A01204BD3589C
:1031E0004022363319780A431A70200007B0F0BD28
:1031F000002C02D1002E00D13C00019B0133019331
:10320000082BBAD1002CF0D005992800FFF792FDC9
:10321000061E206006D101004022200007F014FAAB
:103220003400E2E7020005992800FFF749FD20007D
:10323000402208C8363319780A431A706B461D7B42
:1032400002992A0004F01CFC230035331D70CCE7E2
:10325000002CD2D1D0E7C04627B6000018BC000031
:103260009414002070B50400006800281DD080214F
:1032700000230E4D89005A19944202D01668B042BC
:103280000BD040338B42F6D1020040213632137806
:103290008B431370FFF706FD02E0054B9A42F3D211
:1032A00040220021200007F0CFF970BD94140020C7
:1032B00094160020084B002801D003004033074A31
:1032C000934202D300231800704719003431097863
:1032D0000029F8D14033F3E794140020941600201D
:1032E00070B505000C00002804D00368002B01D045
:1032F000002903D112490320FDF70EFC011D102205
:10330000200007F098F92A000021200035321278B9
:10331000631CDA77A31CD9772A683435938E103072
:10332000DB05DB0E63842B78042B03D1102207F01E
:103330008BF970BD111D102207F07DF9F9E7C04629
:1033400027B60000F7B516000190002801D0002A2A
:1033500003D11E490320FDF7DFFB00242500009464
:103360001B4827183B0034331B78002B0ED0043049
:103370000019019904F063FB009B984206D93B00B9
:1033800035331B78834201D83D00009080234034C0
:103390009B009C42E4D1002D04D02B0034331B78D9
:1033A000042B0DD1FFF76EFE002804D1002D07D1AC
:1033B0007220404203E03100FFF790FE0020FEBD86
:1033C00031002800FFF78CFFF8E7C04627B6000061
:1033D000941400200200042110B5343213788B437A
:1033E0001370FFF73FFF10BDF7B51E0013000A0072
:1033F00001000020089DFFF7A7FE041E44D0020034
:103400000423343211780B431370AE4203D22049A7
:103410000320FDF781FB731C01D16B1C36D0FDF737
:103420006FFAFA220023920006F09CFF07006B1C43
:1034300020D0184B184800229B5E019323001433C0
:103440001900009306F0EEF900236361134BA561A8
:10345000E383019B2462A38300990F4806F0B6F929
:10346000AB1C07D0EB19013303D13B005A1E93412B
:10347000ED18ED19F31C05D8F31901335A425341E5
:10348000F618F619A663E5632000FEBD2E00F9E7E5
:1034900027B600007C14002098160020CC4F0000B6
:1034A000002210B5094B9B69002B03D10122524227
:1034B000100010BD5C6812195C898C4204D1002890
:1034C000F6D0DC688442F3D01B68EDE79816002044
:1034D000F8B507000C001600002901D10020F8BD46
:1034E00008221A4907F098F8002807D03B78FF2BEC
:1034F000F4D10F227B781340022BEFD12300390047
:1035000032000125A0331B68083110322B4203D151
:103510000F490320FDF700FB2300AF33187804F0B8
:103520002FFBC0B20028D9D01022B076390030006D
:10353000B03407F080F80022A35EF8221B0152008D
:103540001340044A280013433383C8E7E8BB000054
:1035500027B6000006040000F0B585B0050001F0B4
:1035600061F90400FFF78EFD002854D0002C4DD0E7
:1035700023001F260068B03300229A5E838E1B1141
:1035800033409A4203D02B490320FDF7C5FA04309B
:1035900003002A002100FFF7D1FA2900200001F0E2
:1035A00049F821180B7C05001E40102E30D0072250
:1035B0001A40013A012A34D82200943212680133A9
:1035C00001920B746E1C3601B31CE31802931A4B64
:1035D0001A4F643600229B5EA6193100380003930F
:1035E00006F020F900232D0164196367019B144A3A
:1035F000A36723007E331A80029A231DDA67039B98
:103600007C3423803100380006F0E0F805B0F0BDCE
:103610000C4B0193D6E7002CF8D02900200001F0D4
:1036200009F82300002298331A702000FFF79CF954
:10363000ECE7C04627B600007C1400209816002056
:10364000CF4F000060EA0000F0B5040087B00E0024
:103650001D00002803D154490320FDF75DFA5B7873
:10366000022B02D0042007B0F0BD1378882BF9D1CB
:103670000300A0331B68DB07F4D503000100AC3363
:103680001A78A43104AB01F085FA0828EAD16B7AE4
:103690002A7A1B021343AA7A697B12041343EA7A3B
:1036A000090212061A432B7B05981943AB7B1B04B6
:1036B0001943EB7B1B060B4304999142D2D19842EC
:1036C000D0D1AB78012B46D0002B03D0022B48D0B1
:1036D000A878C8E73100EF79AB793F0218312000B4
:1036E0001F4300F0A7FF7FBABFB20600012F30D002
:1036F0002E4B5F432E4BFB181F22A11901930B7C0D
:10370000771C93431A0010233F0113430B74BB1C17
:10371000E3180293274B6437E71900229B5E3900B8
:103720002548039306F07EF800233601A419636749
:10373000019B224AA36723007E331A80029A231D2D
:10374000DA67039B7C34238039001B4806F03EF87F
:10375000BEE71B4BD0E731002000183101F0D2F852
:10376000B6E723003000B0330021595E0830FFF780
:1037700069FC071E00D16EE7FFF730FC0020FFF761
:1037800049FC002806D12300983318702000FFF769
:10379000EBF89DE73B68002B00D15CE73000183068
:1037A000FFF7DAFE94E7C04627B6000060EA0000A3
:1037B000A015FFFF7C14002098160020CF4F0000BA
:1037C0003075000013B54B78022B18D18A78402A47
:1037D00015D80378862B12D1CC798879240204433A
:1037E0000F20CB7864BA1840DB06A4B2DB0F00933D
:1037F0000831230002F0D0F80248604316BD0120D2
:103800004042FBE760EA0000F0B5040087B00E001C
:1038100017000021102202A806F016FF2300012243
:10382000A0331B6813423FD023002100AC331A7829
:10383000A43104AB200001F00DFA3A00310002A8D7
:1038400004F01EF902A9200000F0F4FE0023050098
:103850000193984209DA07333A0002A9200000F0E8
:1038600055FE051E20DB0123019308220F4930007D
:1038700006F0D2FE002807D03378FF2B0CD10F22A0
:1038800073781340022B07D11F2261190B7C9343DD
:103890001A00102313430B74019B002B04D0280142
:1038A00012302018FFF758FE07B0F0BDE8BB00004B
:1038B00070B50600180006F001F9041E0FD0FF23B2
:1038C0004268D37100231A001900180001F0D0F9E2
:1038D000051E06D12100200001F0A5FB2C002000D0
:1038E00070BD0022B35E426853800460F6E70000BA
:1038F00010B502490320FDF70FF9C04627B60000B6
:1039000070B504000800002C02D02378FF2B01D1F1
:10391000FFF7EEFF18230022872106F02FF800287A
:1039200049D0002243681A715A719A71DA7162782B
:10393000217812020A43A178657909040A43E178E3
:103940002D020906114322791543A2791204154369
:10395000E279197212062A430D0A5D720D0C090EE6
:10396000D972110A1A735973110C120E9D72997340
:10397000DA73627A217A12020A43A17A657B09041A
:103980000A43E17A2D0209061143227B1543A27BEB
:1039900012041543E27B0C0A12062A4319745C7464
:1039A0000C0C090E9C74D974110A1A755975110CF6
:1039B000120E9975DA7570BD70B504000D00100017
:1039C000002C02D02378FF2B01D1FFF791FF1823A1
:1039D0000022882105F0D2FF00284BD01F229543FA
:1039E000002243681D71DA719A715A7162782178E8
:1039F00012020A43A178657909040A43E1782D028D
:103A00000906114322791543A27912041543E2797C
:103A1000197212062A430D0A5D720D0C090ED97235
:103A2000110A1A735973110C120E9D729973DA737D
:103A3000627A217A12020A43A17A657B09040A4359
:103A4000E17A2D0209061143227B1543A27B120461
:103A50001543E27B0C0A12062A4319745C740C0CA1
:103A6000090E9C74D974110A1A755975110C120E2D
:103A70009975DA7570BD10B508230022852105F00F
:103A80007DFF002805D0002243681A715A719A718F
:103A9000DA7110BD10B5002304001000CAB2F8217D
:103AA00007320A40190001F0CDFB002804D042681B
:103AB00014708368DB08537010BDF8B507000E0062
:103AC00018000231FFF7E6FF041E0CD04368002106
:103AD0009D1C836828009A1E06F0B6FD320039004E
:103AE000280006F0A8FD2000F8BD10B5002801D080
:103AF000002901D1FFF7FCFE0123FFF7DEFF10BD17
:103B000010B5002801D0002901D1FFF7F1FE0223F2
:103B1000FFF7D3FF10BD0000F0B5060085B00C0024
:103B200015001F00002802D00378FF2B03D128497D
:103B30000320FCF7F1FF0029F9D0002FF7D008008F
:103B400000F0CCFA002D06D12A003100200000F050
:103B50008BFD051E1AD010221E49280006F05CFDC0
:103B6000002813D023002100AC3301931A78A4312C
:103B700002A806F060FD019B1978002906D00A9A78
:103B800002A8FFF7B2FF00281DD00A9030000A9962
:103B9000FFF7B6FE061E16D0030020003A002900EB
:103BA000B030FFF785FE0A90031E0BD00A4A0B497E
:103BB000022000F0EEF8002805D0200000F098FA6E
:103BC00005B0F0BD0A9600210A9801F027FCF4E741
:103BD00027B6000018BC0000020200000000FFFF32
:103BE000F0B58BB001900C0017000393109D0028D6
:103BF00002D00378FF2B03D132490320FCF78CFF5E
:103C00000029F9D0002AF7D0080000F067FA0199DE
:103C1000200000F00FFD029000284DDB10222A4901
:103C2000380006F0F9FC1022061E16D1274906A816
:103C300006F001FD27002100AC37A4313A7804A832
:103C400006F0F9FC397800290FD02A0004A8FFF704
:103C500057FF002830D0050007E0390006A806F01D
:103C6000EAFC039B4026002BE4D1002D06D0029BEA
:103C7000E3181A7C20231A4200D01E4331002A0088
:103C80000198FFF799FE061E16D00300200006AA31
:103C90000021B030FFF70CFE051E0CD003000C4ACB
:103CA0000C49022000F075F8002805D0200000F033
:103CB0001FFA0BB0F0BD35000021280001F0AEFB6B
:103CC000F4E7C04627B6000018BC0000C8BB0000DF
:103CD000020200000000FFFFF0B5050085B00E00F5
:103CE000002803D122490320FCF716FF002900D148
:103CF000204E280000F0F2F900223100280000F0E8
:103D0000B3FC071E16D02C002900AC342278A43155
:103D100002A806F090FC21780024A1420BD02200DA
:103D200002A8FFF7E2FE041E05D10021200001F0E9
:103D300075FB16E004002000FFF79DFE0190031EB6
:103D4000F3D0280032003900B030FFF7B1FD041E77
:103D50000CD00300084A0949022000F01AF8002894
:103D6000E3D0280000F0C4F905B0F0BD019CDCE709
:103D700027B60000D8BB0000020200000000FFFFD1
:103D800007B56B460191010068465A8005F03CFC7E
:103D90000EBDF0B585B006000F0001921C0001F0C9
:103DA0000EF9051E0AD03900300001F001F9691E34
:103DB0000600200001F020FB002E02D1280005B0F3
:103DC000F0BD337A002B06D0012B11D0002120004A
:103DD00001F024FB07E00C23F05E019A2100FFF7BD
:103DE000CFFF0028F2DD300001F0F8F80600E3E72D
:103DF000019A02AB5A8019000022F068039405F082
:103E00003DFAEEE710B50368024A5C691C21012304
:103E1000A04710BD07BB000010B51022034906F0F3
:103E2000FBFB43425841C0B210BDC04618BC000065
:103E300010B508220949040006F0EEFB0123002812
:103E400009D022780023FF2A05D10F206378034090
:103E5000023B58424341180010BDC046E8BB000079
:103E6000F8B5050008000F001400FFF7D5FF002883
:103E700013D1002C0BD00326323500242001281842
:103E8000390003F07FFD002804D02000F8BD123572
:103E90000226F2E70134A642F0D101204042F5E7C4
:103EA00070B50400456800F055FE22002B68010043
:103EB0001E69A43208232800B0470300863308D0C7
:103EC00022000123A03211680B431360002808DC94
:103ED00070BDAC342378002BFAD003490320FCF7E3
:103EE0001BFEAC342070F3E727B60000F7B50500E1
:103EF00001911700002801D0002903D12049032097
:103F0000FCF70AFE047C002C2CD0002A24D12E00C1
:103F100012360199300003F092FD0400402804D8C5
:103F20003000FFF785FF00281FD100266B7C002B97
:103F300010D0002F04D09B060CD43B789B0709D5EA
:103F400022350199280003F07AFD070040280ED998
:103F5000A74212D23000FEBDA30606D40123147876
:103F60001C40D4D101267642E0E70024FAE728007D
:103F7000FFF75EFF0028EBD0ECE70126EAE7C0463A
:103F800027B60000017842783F2013020B4310B59A
:103F90005BBA074C9BB283433A38A34207D009303F
:103FA000FF2904D10F231340052B00D1180010BDA9
:103FB000C0FE000013B58068002911D16B466A4627
:103FC0001980114B01905380B0300023C15E6846C8
:103FD00005F0FAFA002802DC0C4806F0B7FB13BD26
:103FE0000229FCD103689B689847041EF7D0102073
:103FF000074920562300074AFFF7CBFE011EEED1EA
:10400000200001F00BFAEAE734120000BEBA00000B
:104010000000FFFF01020000F0B5104C85B00A9EC1
:1040200067682568B74215D0002D05D1A560E56009
:104030000B9D2560002F03D009490320FCF76CFD80
:1040400066600293074B019400930823FCF706FE79
:104050000028F1DD200005B0F0BDC046F4160020B8
:1040600027B600000541000010B50B4A002807D014
:104070000300B433904204D208490320FCF74CFDFE
:104080001300074A934202D30023180010BD196899
:104090000029FAD1B433F5E7F416002027B6000062
:1040A000A817002010B500242000FFF7DDFF00282E
:1040B00001D1200010BD03685A1E9341E418F4E7B3
:1040C00010B504000020FFF7CFFF002805D0030043
:1040D000B03300229B5EA342F5D110BD10B500287D
:1040E00005D00368002B02D0083005F091F810BD10
:1040F00010B5002805D00368002B02D0083005F069
:104100008DF810BDF0B504002600ABB006AD082256
:104110000021280006F098FA944B20006B80FFF7EE
:10412000DDFF934BB0361B886568102133800AA8E9
:1041300005F0BEFA8F4BAC606B602B6828009B6863
:104140009847011E00DA06E12800FFF75BFE606871
:1041500002AB9E1D036832001F6927210223B84766
:10416000022803D084490320FCF7D6FC33882600BC
:10417000AF363370200000F02BFD2000FFF790FEDB
:104180000822002108A806F05FFA00200021002381
:1041900003AA049005911380013353703178C81E2F
:1041A0000728DFD822002700A032AC37126806F0BB
:1041B00023F8046D049DAC6DAC041A42D2D03B7858
:1041C000062BCFD1052905D00A2958D0032908D1BB
:1041D0006A4A01E0A022D20023009C331B8893424C
:1041E000C0D127000126A0373B68334221D02300ED
:1041F0002100AC331A78A43104AB200000F02AFD72
:104200008630AFD03B683342ACD02300AF3301934C
:10421000187803A903F0CEFC8630A3D03B68334264
:10422000A0D0019B08AA187804A903F0A9FC863045
:1042300098D023004022AE331A702000FDF7B6FF5D
:1042400023681B68002B01D020009847200081279D
:10425000FFF74EFFBF0008AE300005F023FA738869
:10426000474A934269D058D8464A93425FD0236860
:104270005B69002BEFD0310020009847EBE723006B
:104280009C333E4A1B889342ABD96BE71A4200D15C
:1042900068E73B78022B02D0082B00D062E72300AE
:1042A000A0229C331B88D200934200D05AE72300FF
:1042B000AD331B78002B00D154E7606802AA036875
:1042C00003321F6918210123B847863000D149E71E
:1042D0003378042B85D1606808AA036803211E691E
:1042E0000823B047863000D07BE73BE71A4200D175
:1042F00038E73B78012B00D034E723009C331A8841
:10430000214B9A4200D06CE72CE71A4200D029E7F3
:104310003B78002B00D164E724E7BB4218D01B4A4E
:104320009342A4D12B682800DB68984793E7236861
:1043300071685B68200098478DE723681B69716886
:104340002000984706A90790300005F07DF982E724
:104350002368DB68F3E70E4806F07EF90020206052
:10436000308060606860A8602BB0F0BD050200007E
:10437000B4020020B53F000027B60000DC050000B5
:104380000302000002020000FFFF000034120000E0
:10439000E3BA0000F7B50E000500FFF79FFE337883
:1043A00034890B2B56D00ED8082B00D187E0092B6F
:1043B00033D0072B0DD1012C24D12A00AE327368E3
:1043C00012781A7024E0112B00D18FE00AD80C2B40
:1043D00055D0686833890268317814697268A047DB
:1043E000040015E03F2B0BD0402BF2D1012C09D15A
:1043F0002B00A0331B6872681B0A2340137007E070
:10440000012C03D040490320FCF786FB73681C7025
:104410002800FFF76DFE2000FEBD0F2CF2D900240E
:104420002B7C7768A34207D0290038001022123174
:1044300006F001F91037103433899C42E8DA6B7CBE
:10444000002BE5D0290010222231380006F0F3F8C5
:104450001034DDE7002CD5D02B0028000024726832
:10446000103312303189A142D2DD8342D0D0197885
:10447000002902D01170013401320133F2E70F2C10
:10448000C0D973682F0000932B00002462333237A9
:1044900001933389A342BBDD019BBB42B8D03800F6
:1044A000FFF7BAFC002808D110223900009806F066
:1044B000C2F8009B1034103300931037E9E7072C43
:1044C000A0D92A00A03212687368D20700D480E70E
:1044D0002A002900AC321278A431280000F0BAFB7F
:1044E00003000400863300D173E791E77388022B41
:1044F00000D06EE7022C00D084E72B009C331A8892
:1045000073681A8084E7C04627B60000F0B58FB004
:1045100004000D0004921E00002801D0002903D1E0
:1045200042490320FCF7F8FA0B78FF2BF8D008007B
:10453000FFF772FC0028F3D110223D49280006F055
:104540006BF80028ECD0049B013B7F2BE8D82000BF
:10455000FFF7C4FD1F233340072B02D19E43063BC8
:104560001E4320002900123003F00CFA002818D155
:10457000237C20005A1E934129005B422230059380
:1045800003F000FA071E13D1059B0390013313D1EA
:10459000637C002B0ED02000FFF7AAFD0C204042C8
:1045A00004E000252000FFF7A3FD28000FB0F0BDB8
:1045B0000125F7E701230393039B1022E3180593DA
:1045C0001E74039B2900581C00010230201806F0BD
:1045D00032F81F22059B1B7C1340102B18D100239F
:1045E00006932300B03305930020185E07AA06A99E
:1045F00005F0FCFA061E10D1002F09D10123059AFF
:104600005B420020105E29000093049A05F086FAB0
:104610002000FFF76DFD0398C8E7290007A803F005
:104620000EFA049B9842DCD33700DAE727B6000085
:10463000F8BB000070B504000D00002801D000296F
:1046400003D108490320FCF767FAFFF747FD29006B
:1046500000222000FFF704FC05002000FFF748FDC2
:10466000280070BD27B60000F0B587B005000191A5
:104670001400002801D0002903D169490320FCF768
:104680004BFA0122002104A805F0DEFF2800FFF705
:1046900025FD2B7C002B00D084E001235B4200939E
:1046A0006B7C002B00D091E0009B0024002B73D189
:1046B0000222002105A805F0C7FF0198FFF7B8FB0B
:1046C00002230293002803D10198FFF75BFC0290BC
:1046D000002637000122BA407B1C039304AB1B78F1
:1046E0001A4232D07B1C1B01AC1C1C190199200002
:1046F00003F048F900284FD12000FFF799FB02236F
:10470000002803D12000FFF73DFC0300029A9A42E3
:1047100000D073E005ABDA1913780433DBB2137001
:10472000B34200D97AE01F227B1CEB18DB7B1340DD
:10473000082B0AD105ABDF193B780133DBB23B70A4
:104740001A1CB34200D2321CD6B2039B0127022BA3
:10475000C0D13A00002104A805F076FF05AA13781D
:10476000B34204D104AB1B7804A93B430B705378CC
:10477000B34205D104AB1A780223134304AA137081
:1047800004AA01992800FFF7B1FB0401002801DA0F
:10479000009B1C0112342C192800FFF7A9FC2000F3
:1047A00007B0F0BD5B0700D077E7002C07D104AB62
:1047B0001A780123134304AA137000236FE728001B
:1047C0001230FFF735FB0028F1D166E75B0700D018
:1047D0006AE7002C0BD104AB1A780223009C134328
:1047E000013404AA137063426341009360E7280018
:1047F0002230FFF71DFB0028EDD155E7029A9A42BF
:1048000000D890E705ABDA1913780233DBB21370E6
:104810001A1CB34200D2321CD6B284E7042682E7C7
:1048200027B6000070B5050000242000FFF71CFC2F
:10483000041E0DD0002229002000FFF711FB0028E4
:1048400006DA012229002000FFF70AFB0028ECDB32
:10485000200070BDF7B5050001242F00019100264E
:10486000FFF73CFC323764420199380003F08AF8C4
:10487000002804D02800FFF73BFC3000FEBD631C7D
:1048800005D13800FFF7C8FA002800D034000136FF
:104890001037032EE8D1631C05D12800FFF728FC50
:1048A0000C204042EAE720013230102201992818FA
:1048B00005F0C1FE2800FFF71BFC2000DEE700002A
:1048C00070B504000D00002801D0002903D10C4967
:1048D0000320FCF721F9FFF701FC01222900200049
:1048E000FFF7BEFA002806DB000132302018102244
:1048F000002105F0A9FE2000FFF7FAFB70BDC046BD
:1049000027B60000F0B591B0061E009101D0002935
:1049100003D134490320FCF7FFF8334BFF240893FD
:10492000002380250E20099308AB6D041C73009BA7
:104930000A955B7B08AA0099537308ABC018022242
:104940000E3105F078FE3000FFF7C8FB330010335E
:1049500002932233039301230193234B37000693E1
:10496000002312370793049505940099380003F04B
:1049700009F8041E19D00021029B1022197038007A
:1049800005F062FE029B103701330293039B9F42A6
:10499000EBD1019B002B03D008A93000FFF790FF5B
:1049A0003000FFF7A5FB11B0F0BD39001E20069BBB
:1049B0000CAD0C93079B0E310D93049B02220E93BA
:1049C000059B2B737B7B6B7308ABC01805F033FE24
:1049D00008A9280002F0D6FF002800D1019C01940C
:1049E000D0E7C04627B60000FF02000070B50D00FA
:1049F0000600FFF773FB2B780C2B00D163E00CD87B
:104A00002C89092B46D00A2B56D0072B0BD1012C11
:104A100036D04D490320FCF77FF8112B00D163E01D
:104A20001AD80D2B57D070682B89026829785469E1
:104A30006A68A047041E28DD2B78022B25D3052B9E
:104A400000D87CE0192B20D16B681B78052B1CD17A
:104A50007068FFF7D7F918E01A2B57D0402BE2D136
:104A60002C89012CD5D131006B68A0311B780A68E4
:104A7000012B47D18020400002430A60012404E05A
:104A80006B681A783300AE331A703000FFF730FBD2
:104A9000200070BD102CBCD16A881F2311009943DF
:104AA0000B002343DBB2120A69683000FFF72EFDCA
:104AB000041E40DB1024E8E7102CAAD169683000FE
:104AC000FFF720FFE1E72B89102BA2D169683000A6
:104AD000FFF7C0FEECE72C89102C00D099E769683D
:104AE0003000FFF7EDFED0E76B88022B00D09AE78D
:104AF0002C89022C00D08CE76B681A8833009C3319
:104B00001A80C2E7114B1A400A60BEE731006A689A
:104B1000A03110780B6801280AD18020400203439D
:104B200070680B6001682B894C691A21A047A5E7C2
:104B300007480340F4E703008633A6D173E730004B
:104B4000FFF7AEF9A1E7C04627B60000FFFEFFFF62
:104B5000FFFFFEFF030037B5AF331B78043B012B8B
:104B600014D86B4640689C1D036822001D6905210E
:104B70000223A847022803D005490320FBF7CCFFF6
:104B8000208808384342584102303EBD0220FCE7ED
:104B900027B6000070B51D000300A0331B68DB07BB
:104BA00013D50300AF331C78042C09D1022A07D196
:104BB00040682A00036803211C690823A04770BDD0
:104BC0002B00200002F07EFFF9E786204042F6E746
:104BD000F0B50400476885B03B6826001B699C3629
:104BE00001930300AF33187802AB04389D1D0628EB
:104BF00020D805F001FB041F041F041F0B00220036
:104C00008023A03211685B000B431360380002233D
:104C10002A001121019FB847022803D00C49032024
:104C2000FBF77AFFA023DB0033802B88AD342370A1
:104C300005B0F0BD02232A0011213800019CA047D5
:104C4000002803DA01235B423380F1E72B88FBE77E
:104C500027B6000010B50400A0342468E40704D58A
:104C6000AF30007802F048FF10BD86204042FBE7DD
:104C7000F7B501921A00083252180E001C000021EC
:104C8000012307005B42080000F0DCFA051E1FD07C
:104C9000002340680670447043808380C3809F4235
:104CA00006D09E4204D008303200390005F0C3FC23
:104CB000019B002B0CD0002C0AD068684378A342DB
:104CC00006D1037822000833C018019905F0B3FC1F
:104CD0002800FEBD2823F0B5456893B0EC8BEA8927
:104CE0001C4008AB07000E1E1A8002D11624644235
:104CF0003EE01023CB56013343D149680B79DA06E5
:104D000039D401223F20144383430A78002B34D145
:104D100013000833CB18079348780831002A04D1D0
:104D20003A003900AC321278A431AF7EBC466346FB
:104D30000137AF760493039408AC248802AB1C803F
:104D400001AB1C800CAF0090079B380002F0BEFC4A
:104D50000028CBD033680B9009932B6809A90A97D8
:104D60001B682800984700210400300000F056FB23
:104D7000200013B0F0BD1122C4E7034B02200793BB
:104D8000CBE74D24B3E7C046B5BB0000F0B547689C
:104D90008BB03B6806005C68002338001A001900DD
:104DA000A0470500022800DCAEE000230200190045
:104DB000180000F047FA3B68041E08D15E68010045
:104DC00003002A003800B04720000BB0F0BD5B683C
:104DD0002A009C46416805AB38006546A84701900B
:104DE000002805DC0021200000F018FB0024EBE780
:104DF0003300A0331D6880235B021D4020D00023B8
:104E00001A0019001800FFF733FF051EEAD004ABA3
:104E10009B794268537104AB9B88D3803300B033D5
:104E20001B8853800023036023001A68002A05D1E1
:104E30001D600199200000F085FAC5E71300F4E732
:104E4000606802F0D5FC011ECCD0019B8342C9D31F
:104E5000019B2A001B1A2000019300F00DFA051E89
:104E6000C0D0436804AA180008A9029302F030FDDC
:104E700004AA039006A9029802F0DEFC039B002B13
:104E8000B0DB0028AEDB6B46C1B21B7B08AA06A8CC
:104E9000FFF7EEFE061EA5D0039A4368022A0BD147
:104EA00008AA1178FF2907D15278FF2A04D119796D
:104EB000803AFF3A0A431A71029A1178102211427D
:104EC00002D019790A431A7105AA9178128859718A
:104ED000DA80134A1821128838005A803B68220071
:104EE0001B6910329C4601236746B8472900200001
:104EF00000F099F800233360230000E013001A68E3
:104F0000002AFBD11E6094E70024A04200DC5BE78E
:104F10003B6802005C68002338001900A04765E781
:104F2000B402002013B5034C0194049C0094FFF7D5
:104F300073F816BD08BB000000280BD1CBB2042BC0
:104F400000D97047044B8900C8580028F9D043683D
:104F50009342F6D00068F8E7A817002010B50A7A47
:104F60000B00002A15D10C22895E0D4A8C00A25834
:104F7000126A002A0DD10B4805F06EFB0A49032086
:104F8000FBF7CAFD094A8000815819608350002050
:104F900010BDC2B2042AF5D916204042F8E7C04637
:104FA0000403002020BB000027B60000A817002043
:104FB00010B50A0001000020FFF7BEFF10BD70B55C
:104FC000050000200E00040032002900FFF7B4FFA6
:104FD000002801D1200070BD0134F5E710B500288C
:104FE00003D042680021FFF7A7FF10BD10B50029CC
:104FF0000DD01023C356032B03D0042B04D0022062
:1050000006E004F0CCFC10BD02F0E8FAFBE7162045
:105010004042F8E7002803D01023C3568B4200D14A
:1050200070470068F6E710B50400080023008C42C2
:1050300007D124680021016000F0F0F9200010BDC4
:1050400013001A68002AF5D08242F9D102681A606A
:10505000F0E7F8B50021050007008668002F10D1A1
:105060008E420CD0280000F06DF9071E07D12C6885
:10507000002C0AD12100286800F0D0F92C603800FB
:10508000F8BDBB683F68C918E8E76B68A268981963
:10509000616805F0D0FAA3682468F618E8E7000014
:1050A00003000722073393430022F0B5174C206812
:1050B000002821D04168994210D3C91A144EC31850
:1050C00007290ED9C0279D1B08357F01BD4216D97F
:1050D00000222260026859601A6006E0020000683F
:1050E000E6E70168002A08D121600A4A9B1B118863
:1050F0009BB2994200D21380F0BD1160F5E7002AFF
:1051000001D12360E6E71360E4E7C046BC17002046
:10511000C4170020C42F002010B501210148FCF75E
:1051200011FC10BDC0170020204B214A70B5C31AD6
:10513000934221D800231F4C2268002A01D08242CA
:105140001BD302600722073191431B4A4518521BAB
:10515000072A15D94160002B14D120600368002B69
:105160000AD0426882189A1A072A05D81A6802607B
:105170001A1A5B689B18436070BD13001268DCE765
:105180005118E7E75A6818609A18821A072AE5D872
:10519000002803D109490330FBF7BEFC0268C11A9D
:1051A0001A604268180052185A60D7E7C4170020E6
:1051B000FF170000BC170020C42F002027B60000F6
:1051C000F7B5009014200F0016000193FFF768FF59
:1051D000041E0CD00025AE4211D03000FFF760FF56
:1051E000051E06D120001421FFF79EFF2C00200091
:1051F000FEBD002F03D03200390005F01CFA009BE1
:1052000065602360019BA66023740123E360EEE7E1
:1052100010B5FFF781FF084B084A182113600022E0
:1052200059711A705A709A70DA701A719A71DA712B
:105230000348FCF7B7FB10BDC4170020BC170020C3
:10524000C0170020F7B51F00C02301900E00150005
:105250005B0100249A420BD8FFF75EFF3B002A0057
:1052600031000198FFF7ACFF04000248FCF79AFBFD
:105270002000FEBDC0170020F7B50D00040001920C
:10528000FFF74AFF002D07D0002C05D0A368AB42E2
:1052900002D36368002B05D12948FCF783FB002665
:1052A0003000FEBD1420FFF7FBFE061EF4D0A268FE
:1052B00095423ED00721EB1D8B439D4239D22800F9
:1052C000FFF7EEFE071E04D114213000FFF72CFF7C
:1052D000E2E7A368581BFFF7E3FE0090002806D121
:1052E00014213000FFF720FF29003800EEE72A00E4
:1052F0006168380005F09FF9A36800985A1B63683D
:10530000591905F098F9A1686068FFF70DFF009B37
:105310006360A3680A485B1BA360236877603360FF
:10532000019BB56033740123F3602660FCF73AFB00
:10533000B6E7676800239542EAD07B19E8E7C046E4
:10534000C0170020F8B504000D00FFF7E5FE002CA3
:1053500003D125490320FBF7DFFBA1686068002922
:1053600009D10028F5D1214EA9420CD13000FCF71B
:1053700019FB00201BE00028EBD01D4B1D4AC31A6F
:105380009342F0D9E5E7002D06D1002820D0FFF7A1
:10539000CBFE6560A560E9E7A94219D22800FFF7B6
:1053A0007FFE071E04D13000FCF7FCFA0C20F8BD8C
:1053B0006168002906D0A268AA4200D92A003800F4
:1053C00005F039F9A1686068FFF7AEFE6760E1E7B4
:1053D0000727EB1DCA19BB43BA439342DAD2C91A55
:1053E000C018FFF7A1FED5E727B60000C0170020C0
:1053F000C4170020FF17000070B504000D00FFF770
:105400008BFE002C03D10448FCF7CCFA70BDE36896
:105410005B19E3602468F4E7C017002070B504004E
:10542000FFF77AFE002C03D11048FCF7BBFA70BDE1
:105430000F4B104AE31A934203D90F490320FBF79D
:105440006BFBE368002BF8D02568012B0BD1002300
:10545000A1686068E360FFF767FE14212000FFF792
:1054600063FE2C00DEE7013BE360FAE7C017002093
:10547000C4170020FF17000027B6000070B5040015
:10548000FFF74AFE0D4D002C03D12800FCF78AFAE5
:1054900012E0E368012BF8D91023A268E356616893
:1054A0002068FFF78DFE061E02D0E368013BE36033
:1054B0002800FCF777FA3400200070BDC0170020E8
:1054C000F8B5060004000427002C04D130002100A8
:1054D000FFF7A4FFF8BD10202056A56801306368CF
:1054E000052826D804F088FE032511161B20180075
:1054F00004F0BEFBA168A94205D96368491B58198D
:10550000102202F091FB2468DEE72900180002F067
:10551000A7FDEFE7180002F0D3FA2825EAE7180004
:1055200002F0BEF83D00E5E7180002F057FF08253D
:10553000E0E710222900180002F076FBDAE700000D
:1055400010B594B0082104A804F0B2F8862302AC88
:105550005B4263600B4B6380684604F0A3F86B46C4
:105560005888094BC0180328F6D804F045FE0202FB
:1055700006060198FFF7A4FFEEE72100684604F055
:1055800063F8E9E705020000FFFDFFFF1FB50B4CC4
:105590000022A35E002B0CD1C021094A0193094BC4
:1055A0000292009306220823C9000748FBF756FB26
:1055B00020800023E05E04B010BDC046C635002048
:1055C00077BB000041550000C62F002010B5002118
:1055D000FFF724FF10BD00001FB50A4C0023E05E5A
:1055E00000280DDC084B8021029300230193074B18
:1055F00003220093C90008230548FBF72FFB2080F6
:1056000004B010BDC83500207FBB0000ED5600007F
:10561000CA35002010B503000400054A05490220E0
:10562000FEF7B7FB002802D12000FFF7CFFF10BD27
:10563000010200000000FFFF102310B5C356040054
:10564000013303D008490320FBF766FA4368074A91
:105650000220185E2100FEF793FB002802DC2000E8
:10566000FFF7B4FF10BDC04627B6000002020000DD
:10567000F7B504000F000193002803D11949032056
:10568000FBF74AFA002AF9D000230668002E0BD156
:10569000AD321278002A01D09A4209D3019A002132
:1056A0002000FFF7C9FFF7BDB16836685B18EDE76A
:1056B0000D4B9F4210D800F0FFF90C21051E0CD0B5
:1056C0000460878000F024FB2E81E880019A290085
:1056D000200000F0FBF9E6E77A212000FFF79EFEAC
:1056E000E1E7C04627B60000FF070000F0B59BB019
:1056F00006AC10220021200004F0A6FF634B082115
:105700006360634B0AA81B8804AEA38103F0D0FF3B
:1057100021000120FFF722FC5E4B738002A803F0FA
:10572000C1FF812202AB5B889200934222D85A4A81
:10573000934200D39CE0594A934225D0584A934261
:10574000ECD1039D002D25D0AB68072B22D92B6807
:10575000002B1FD01B7C5BB2022B1BD12800FFF754
:105760008DFE041E16D04368002B4ED14D490320F8
:10577000FBF7D2F94C4A934200D181E04B4A934265
:10578000CCD100F0D8FAC9E7039D2800FFF776FED8
:10579000041E01D1280008E00121FFF73BFC00288E
:1057A00002D08368002B03D12000FFF70FFFB5E77D
:1057B00043681B78412B13D1FFF760FE051EF3D021
:1057C00001221100FFF758FD011EEDD02000FFF768
:1057D0002AFC022300222B741100FFF71BFF9DE718
:1057E000272219009143C02909D01F229343602B1F
:1057F000DAD100222000110000F03CFD8EE70022EB
:105800002000110000F06CFA88E70220185EFEF715
:1058100057FC0023070025680193002D0CD1002FB1
:10582000C2D03B00A0331B68DB050CD52A00290041
:10583000200001F07BF871E7AA68019B944663445D
:1058400001932D68E9E7012329001A002800FFF7DA
:10585000F9FC0028A8D04122236801990360206048
:10586000436820001A702B003A00FFF701FF55E74C
:10587000862331005B4202A8736003F0E5FE4DE72A
:1058800000220399100000F021F947E70000FFFF14
:10589000B402002005020000030200000102000023
:1058A0000202000027B600002502000026020000C8
:1058B00070B5142444430E4B05001C19638A002B59
:1058C00004D11022637C9343637470BD0120FBF705
:1058D00035FE084904F0AEFC074BAD00EB5883429F
:1058E00002D800236382ECE71B1A6382EDE7C0460F
:1058F000103A002000879303CC390020F7B500242C
:105900002600124F019001213800FCF71BF800948B
:1059100014256543E0B2FFF7CBFF0D4BED182B7C50
:10592000002B0BD00199280002F089F82B7C8342D0
:1059300004D8009B984201D92E0000900134102C0D
:10594000E6D13800FCF72EF83000FEBD0C3A0020FE
:10595000103A002070B5040000200F2C12D8142536
:105960000B4E012165433000FBF7ECFF2000FFF7F1
:105970009FFF084845192C7C3000002C03D0FCF711
:1059800011F8280070BDFCF70DF82000FAE7C046BA
:105990000C3A0020103A0020F7B51F0008AB1B7826
:1059A000050001911600009300240F283BD8141E17
:1059B00039D001211E48FBF7C5FF3A001423511EC0
:1059C0008A416B4300991B4C5242E31811405F829D
:1059D0000091802E29D980221A74009A2B00002A67
:1059E00001D010232B4314226A43A4180199637435
:1059F000200001F0C7FF011E08D11022200004F092
:105A000023FE227C0199200002F03AF80120FBF7E6
:105A100095FD094904F00EFC084BC019AD00E85093
:105A20000348FBF7BFFF2000FEBD1E74D5E7C0464C
:105A30000C3A0020103A002000879303CC39002054
:105A4000F8B505000E001F00934200D91700297811
:105A500028000A0008326B78AA180830FFF708F906
:105A6000041E17D002216A5E43685A802A791A718F
:105A700006216A5E0021DA806A7908005A710123E2
:105A80003A00FFF7DFFB051E06D101002000FFF7FB
:105A9000C5FC2C002000F8BDB38842685BBA9BB2FD
:105AA00013701B0A5370F3885BBA9BB293701B0A86
:105AB000D3702060EEE70000034803685A42534168
:105AC0005B4218407047C046543B0020F0B587B099
:105AD0000091002903D180490320FBF71DF8002520
